:100000000C942B010C9453010C9453010C94530148
:100010000C9453010C9453010C9453010C94530110
:100020000C9453010C9453010C9453010C94530100
:100030000C9453010C9453010C9453010C945301F0
:100040000C9427060C9453010C94F5050C94CF05E1
:100050000C9453010C9453010C9453010C945301D0
:100060000C9453010C9453015B00293D00213D0089
:10007000696E6465783D002A2A2A20425546464525
:100080005220495320434F52525550544544202A40
:100090002A2A00206572726F727320666F756E6413
:1000A000005465737420313A20005D0A0042756681
:1000B0006665723D5B002A2A2A2042554646455213
:1000C00020495320434F52525550544544202A2A28
:1000D0002A00426567696E696E67205465737431E2
:1000E000000A2A2A2A20425546464552204F5645A4
:1000F00052464C4F57202A2A2A00546573742032E6
:1001000020636F6D706C65746564002A2A2A204232
:10011000554646455220495320434F52525550545C
:100120004544202A2A2A005D0A00427566666572E7
:100130003A5B004C656E3A002A2A2A204255464610
:10014000455220495320434F525255505445442064
:100150002A2A2A00426567696E696E6720546573B2
:100160007432002A2A2A204641494C454420544FE3
:1001700020414C4C4F434154452042554646455240
:100180002000436F6E737472756374696E67094201
:100190004A4D656D6F72790044657374727563744E
:1001A0006F723A20424A4275666665724D616E61B1
:1001B00067657200436F6E737472756374696E67FE
:1001C00009424A4275666665724D616E6167657285
:1001D000002A2A2A204255464645522049532043A8
:1001E0004F52525550544544202A2A2A002A2A2A7E
:1001F0002042554646455220495320434F525255BE
:1002000050544544202A2A2A00526563726561745D
:10021000696E6720427566666572204D616E616722
:100220006572002A2A2A20425546464552204953E3
:1002300020434F52525550544544202A2A2A00291F
:1002400000202800415641494C204D454D4F525900
:100250003A090000790611241FBECFEFD8E0DEBFB7
:10026000CDBF11E0A0E0B1E0E4E8F3E102C0059009
:100270000D92A237B107D9F722E0A2E7B1E001C0A1
:100280001D92A836B207E1F711E0CBE2D1E004C03D
:100290002197FE010E94B509CA32D107C9F70E9411
:1002A000B8060C94C0090C940000EFE7F1E0A089B7
:1002B000B18982E08C93A485B5851C92A685B7850B
:1002C00080E18C93108EA489B58986E08C93A289F5
:1002D000B3898C9180618C93A289B3898C91886059
:1002E0008C93A289B3898C9180688C930288F3895E
:1002F000E02D80818F7D808308950F931F93CF938E
:10030000DF938C01C0E0D0E0F801EC0FFD1F649199
:10031000662371F0E0917F01F09180010190F081FE
:10032000E02D8FE791E00995892B11F02196ECCF14
:10033000CE01DF91CF911F910F910895CF92DF925F
:10034000EF92FF920F931F932FB7F894C0907B0109
:10035000D0907C01E0907D01F0907E012FBFDC0108
:10036000CB018C0D9D1DAE1DBF1D4FB7F8940091A4
:100370007B0110917C0120917D0130917E014FBF66
:100380000C151D052E053F0528F080179107A207C3
:10039000B30758F71F910F91FF90EF90DF90CF9028
:1003A0000895CF92DF92EF92FF920F931F93CF9316
:1003B000DF936C017A018B01C0E0D0E0CE15DF0540
:1003C00089F0D8016D918D01D601ED91FC910190DC
:1003D000F081E02DC6010995892B11F47E0102C040
:1003E0002196ECCFC701DF91CF911F910F91FF9024
:1003F000EF90DF90CF900895089580E090E0089509
:10040000FC01538D448D252F30E0842F90E0821B1A
:10041000930B541710F0CF96089501970895FC019F
:10042000918D828D981761F0828DDF01A80FB11D2B
:100430005D968C91928D9F5F9F73928F90E008954F
:100440008FEF9FEF0895FC01918D828D981731F009
:10045000828DE80FF11D858D90E008958FEF9FEF5D
:100460000895FC01918D228D892F90E0805C9F4F33
:10047000821B91098F73992708958FE791E00E945D
:10048000310221E0892B09F420E0822F0895FC013C
:10049000848DDF01A80FB11DA35ABF4F2C91848D0D
:1004A00090E001968F739927848FA689B7892C9342
:1004B000A089B1898C9180648C93938D848D9813DD
:1004C00006C00288F389E02D80818F7D80830895A6
:1004D000EF92FF920F931F93CF93DF93EC0181E094
:1004E000888F9B8D8C8D981305C0E889F989808150
:1004F00085FD24C0F62E0B8D10E00F5F1F4F0F738C
:100500001127E02E8C8DE8120CC00FB607FCFACF35
:10051000E889F989808185FFF5CFCE010E944702E5
:10052000F1CF8B8DFE01E80FF11DE35AFF4FF082F2
:100530000B8FEA89FB898081806207C0EE89FF8981
:100540006083E889F98980818064808381E090E01C
:10055000DF91CF911F910F91FF90EF900895CF936E
:10056000DF93EC01888D8823C9F0EA89FB898081BB
:1005700085FD05C0A889B9898C9186FD0FC00FB68D
:1005800007FCF5CF808185FFF2CFA889B9898C91CE
:1005900085FFEDCFCE010E944702E7CFDF91CF91DB
:1005A000089580E090E0892B29F00E943D0281119E
:1005B0000C9400000895FC0120E030E087819085D4
:1005C0002817390744F4A181B281A20FB31F1C92EE
:1005D0002F5F3F4FF3CF128611860895DC011796E7
:1005E0002D913C91189780E090E0821793075CF47E
:1005F0001196ED91FC911297E80FF91F4081442369
:1006000011F00196F2CF0895FC01838194818F3F10
:10061000910531F481E0258136812F3F310509F0C4
:1006200080E008950E94BB096115710579F0FB0116
:1006300001900020E9F73197AF01461B570BDC0111
:10064000ED91FC910280F381E02D099480E090E02F
:100650000895CF93DF930E947D01EC016DE471E07A
:100660008FE791E00E9414038C0F9D1FDF91CF91C3
:1006700008954F925F926F927F92EF92FF920F9345
:100680001F93CF93DF93CDB7DEB7A1970FB6F89442
:10069000DEBF0FBECDBF7C01FA01CB0119A2223013
:1006A00008F42AE08E010F5D1F4F422E512C612C61
:1006B000712CBF01A30192010E949309F901CA01A3
:1006C000015011096A3014F4605D01C0695CD80101
:1006D0006C93232B242B252B61F7B801C7010E94B3
:1006E0001403A1960FB6F894DEBF0FBECDBFDF9105
:1006F000CF911F910F91FF90EF907F906F905F903F
:100700004F900895CF92DF92EF92FF92CF93DF93B5
:100710006B017C01E0917F01F09180010190F081FB
:10072000E02D6DE28FE791E00995EC014427552714
:10073000BA014C195D096E097F092AE08FE791E043
:100740000E9439038C0F9D1FDF91CF91FF90EF9096
:10075000DF90CF900895CF93DF93AC01990F660B94
:10076000770B77FF05C0CB01BA010E94820305C059
:100770002AE08FE791E00E943903EC016DE471E01B
:100780008FE791E00E9414038C0F9D1FDF91CF91A2
:100790000895AC01990F660B770B77FF04C0CB016E
:1007A000BA010C9482032AE08FE791E00C9439039C
:1007B000EF92FF920F931F93CF93DF9300D0CDB7AB
:1007C000DEB7FC012091640230916502CE010196F2
:1007D0002115310519F4885692401AC0AC01421B0C
:1007E000530BA0916602B091670280E090E01097F1
:1007F00069F09C012E5F3F4F8D919C911197820F64
:10080000931F12960D90BC91A02DF1CF840F951FD0
:100810009A83898380819181E980FA80019611F41D
:10082000F182E08282819381E816F906D9F08F0186
:10083000F382E28284E492E00E947D01C7010E947B
:10084000C90381E492E00E947D01F80180819181D9
:100850009701281B390BC9010E94C9038FE392E05D
:100860000E9429030F900F90DF91CF911F910F915C
:10087000FF90EF9008950C9414030F931F93CF9360
:10088000DF93EC016623E1F080E790E00E947D01B8
:1008900089859A850E94C903CE010E94EE028C01CF
:1008A00089859A850817190759F08DE690E00E940E
:1008B0007D01C8010E94C9038AE690E00E947D0183
:1008C00088E690E00E947D0100E010E0E981FA8175
:1008D000E00FF11F6081662391F06A3019F40F5F19
:1008E0001F4FF4CF6D30D9F3E0917F01F09180017B
:1008F0000190F081E02D8FE791E00995F0CF68E15C
:1009000071E08FE791E00E9414036DE471E08FE7DE
:1009100091E0DF91CF911F910F910C941403CF932D
:10092000DF93EC0184E591E00E942903CE010E944F
:100930000403811104C088E391E00E942903CE01E1
:100940000E94DB02AAE1B1E02D91222331F1E9817D
:10095000FA8189859A85E80FF91F208349815A8198
:1009600029853A85C90101969A878987FA01E80F96
:10097000F91F108289859A852F8138858217930700
:100980004CF060E0CE010E943D0481EE90E00E94B8
:10099000290313C097FD11C0D7CF6DE471E08FE735
:1009A00091E00E94140383E391E00E947D01CE0157
:1009B0000E94EE020E94AB03C5CF8AE291E00E9442
:1009C0007D0169817A818FE791E00E943B0487E293
:1009D00091E00E94290361E271E08FE791E00E94BB
:1009E0003B048F8198850E94C90367E271E08FE71D
:1009F00091E00E943B04CE010E94EE020E94AB03F4
:100A000061E0CE010E943D04CE010E94DB02CE01D6
:100A10000E940403811104C08BE091E00E9429032D
:100A20008AEF90E00E94290381E0DF91CF91089541
:100A3000CF92DF92EF92FF921F93CF93DF93EC015F
:100A400082ED90E00E942903CE010E9404038111EF
:100A500004C086EB90E00E942903C12CD12CE12C2C
:100A6000F12C10E38F819885C816D906C4F5E98169
:100A7000FA8189859A85E80FF91F108389819A8107
:100A800049855A859A012F5F3F4F3A872987FC0194
:100A9000E20FF31F108229853A858F8198852817E8
:100AA000390744F060E0CE010E943D0481EE90E001
:100AB0000E942903E981FA8189859A85E80FF91F47
:100AC00031978081811719F08FEFE81AF80A1F5FBC
:100AD0001A330CF010E38FEFC81AD80AC3CF8DEA8F
:100AE00090E00E947D0169817A818FE791E00E9408
:100AF0003B048AEA90E00E94290361E0CE010E9453
:100B00003D0461E271E08FE791E00E943B048F8138
:100B100098850E94C90367E271E08FE791E00E9427
:100B20003B04CE010E94EE020E94AB03CE010E9464
:100B3000DB0261E271E08FE791E00E943B048F816C
:100B400098850E94C90367E271E08FE791E00E94F7
:100B50003B04CE010E94EE020E94AB0381EA90E0CA
:100B60000E947D01C7010E94C90383E990E00E94B1
:100B70002903CE010E940403811104C087E790E09D
:100B80000E94290381E01E141F040CF080E0DF9115
:100B9000CF911F91FF90EF90DF90CF9008951F921B
:100BA0000F920FB60F9211242F933F934F935F93A1
:100BB0006F937F938F939F93AF93BF93EF93FF9325
:100BC0008FE791E00E944702FF91EF91BF91AF91B3
:100BD0009F918F917F916F915F914F913F912F9155
:100BE0000F900FBE0F901F9018951F920F920FB687
:100BF0000F9211242F938F939F93EF93FF93E09184
:100C00008F01F09190018081E0919501F091960122
:100C100082FD12C09081809198018F5F8F73209127
:100C20009901821751F0E0919801F0E0E158FE4FF0
:100C3000958F8093980101C08081FF91EF919F91E2
:100C40008F912F910F900FBE0F901F9018951F92AC
:100C50000F920FB60F9211242F933F938F939F9370
:100C6000AF93BF9380917B0190917C01A0917D0116
:100C7000B0917E013091760123E0230F2D3720F4CF
:100C80000196A11DB11D05C026E8230F0296A11DE6
:100C9000B11D2093760180937B0190937C01A093FA
:100CA0007D01B0937E018091720190917301A091BA
:100CB0007401B09175010196A11DB11D809372015F
:100CC00090937301A0937401B0937501BF91AF919C
:100CD0009F918F913F912F910F900FBE0F901F907A
:100CE000189583E691E00E9429038FEF9FEF0E9401
:100CF000C009EFE7F1E01382128288EE93E0A0E0F2
:100D0000B0E084839583A683B7838AE091E09183E2
:100D1000808385EC90E09587848784EC90E09787CA
:100D2000868780EC90E0918B808B81EC90E0938BB8
:100D3000828B82EC90E0958B848B86EC90E0978B95
:100D4000868B118E128E138E148EECE1F2E01682D9
:100D500017821086118612861386148615861686CB
:100D60001786108A118A128A138A148A158A08959E
:100D7000789484B5826084BD84B5816084BD85B576
:100D8000826085BD85B5816085BD80916E00816082
:100D900080936E0010928100809181008260809328
:100DA000810080918100816080938100809180002A
:100DB0008160809380008091B10084608093B10055
:100DC0008091B00081608093B00080917A0084604F
:100DD00080937A0080917A00826080937A0080917B
:100DE0007A00816080937A0080917A008068809395
:100DF0007A001092C100109260021092610210926B
:100E000062021092630210921E0210921F02109250
:100E100020021092210268EB7BE080E090E00E94CB
:100E20009E018FE791E090935F0280935E020E94A3
:100E300055012FB7F89480917B0190917C01A0918E
:100E40007D01B0917E012FBF80931E0290931F02FF
:100E5000A0932002B09321026EE371E080915E02C4
:100E600090915F020E943B046AE070E080E090E0B5
:100E70000E949E0111E0109332020E9455018BE006
:100E800090E00E946608EC01188218861F821A867C
:100E9000198684EB91E00E942903D0937A01C093D4
:100EA000790184E090E00E946608EC018FEF9FEFEB
:100EB000998388839B838A8382E891E00E94290337
:100EC000D0937801C0937701CE010E94D80360E5EA
:100ED00071E08FE791E00E943B04C0917901D091CD
:100EE0007A018EE291E00E9466089C838B830097D2
:100EF00011F40E9471062CE231E038872F830196AD
:100F00009A8389838FEF90E09C838B839E838D836C
:100F10001883CE010E940403811104C083E292E091
:100F20000E942903E0917901F0917A018081882360
:100F300039F081819281892B19F066E371E002C05A
:100F40006EE271E08FE791E00E9414036DE471E0BE
:100F50008FE791E00E9414038091770190917801CE
:100F60000E94D80365E671E08FE791E00E943B04A0
:100F7000E0917901F0917A01878190850E94AB031D
:100F80006CE671E08FE791E00E943B04809179016B
:100F900090917A010E94EE020E94AB038091790148
:100FA00090917A010E9418058091770190917801C3
:100FB0000E94D8038091790190917A010E948F0458
:100FC00080917701909178010E94D803C0917901B6
:100FD000D0917A018881882339F089819A810E9491
:100FE000FB081A821982188288E991E00E9429037D
:100FF00080917701909178010E94D80389E092E076
:101000000E9429038BE090E00E946608EC011882A0
:1010100018861F821A86198684EB91E00E942903A4
:10102000D0937A01C0937901CE010E94040381110B
:1010300004C08DEE91E00E94290380917701909188
:1010400078010E94D803C0917901D0917A018AE594
:1010500092E00E9466089C838B83009709F449CF35
:1010600028E532E038872F8301969A8389838FEFB2
:1010700090E09C838B839E838D8381E08883809125
:101080007701909178010E94D80380917901909125
:101090007A010E9418058091790190917A010E944D
:1010A0008F0480917701909178010E94D8038091FC
:1010B000790190917A010E940403811104C081EDAD
:1010C00091E00E9429030E94D102FDCFCF93DF93CC
:1010D0008230910510F482E090E0E0916602F09198
:1010E000670220E030E0C0E0D0E0309711F14081AD
:1010F000518148175907C0F04817590761F4828198
:101100009381209719F09B838A832BC09093670269
:101110008093660226C02115310519F04217530746
:1011200018F49A01BE01DF01EF010280F381E02D86
:10113000DCCF2115310509F1281B390B243031058D
:1011400090F412968D919C9113976115710521F081
:10115000FB019383828304C09093670280936602AD
:10116000FD01329644C0FD01E20FF31F819391937C
:10117000225031092D933C933AC020916402309162
:101180006502232B41F42091020130910301309339
:101190006502209364022091000130910101211524
:1011A000310541F42DB73EB740910401509105013E
:1011B000241B350BE0916402F0916502E217F307FE
:1011C000A0F42E1B3F0B2817390778F0AC014E5FB7
:1011D0005F4F2417350748F04E0F5F1F509365028D
:1011E000409364028193919302C0E0E0F0E0CF016C
:1011F000DF91CF9108950F931F93CF93DF930097C3
:1012000009F48CC0FC0132971382128200916602AD
:10121000109167020115110581F420813181820F3F
:10122000931F20916402309165022817390779F5E0
:10123000F0936502E093640271C0D80140E050E091
:10124000AE17BF0750F412962D913C911397AD0144
:101250002115310509F1D901F3CF9D01DA0133835D
:10126000228360817181860F971F8217930769F42B
:10127000EC0128813981260F371F2E5F3F4F3183C4
:1012800020838A819B8193838283452B29F4F09369
:101290006702E093660242C01396FC93EE931297A6
:1012A000ED01499159919E01240F351FE217F30773
:1012B00071F480819181840F951F029611969C9301
:1012C0008E938281938113969C938E931297E0E084
:1012D000F0E0D80112968D919C911397009719F028
:1012E000F8018C01F6CF8D919C9198012E5F3F4FB4
:1012F000820F931F209164023091650228173907ED
:1013000069F4309729F4109267021092660202C0C5
:10131000138212821093650200936402DF91CF91D1
:101320001F910F910895A1E21A2EAA1BBB1BFD016C
:101330000DC0AA1FBB1FEE1FFF1FA217B307E407B4
:10134000F50720F0A21BB30BE40BF50B661F771F0C
:10135000881F991F1A9469F76095709580959095EC
:101360009B01AC01BD01CF010895EE0FFF1F059059
:10137000F491E02D099481E090E0F8940C94C00978
:04138000F894FFCF0F
:10138400000068028000000000006802D101000231
:10139400AF0231020F0223025D0041424331323376
:1013A4000053697A653A002C204C656E3A00464138
:1013B400494C555245005355434345535300564DEC
:1013C4004450565F317C315F564D4450560D0A00EF
:1013D400416C6C6F636174696E6720427566666503
:1013E400722E2E2E0053697A653A20004C656E3AAF
:0213F4002000D7
:00000001FF
