:100000000C94DF000C9407010C9407010C94A205DA
:100010000C94A2050C94A2050C9407010C94F30710
:100020000C9407010C9407010C9407010C94070130
:100030000C9407010C9407010C9407010C94070120
:100040000C9411040C9407010C9404030C94DE022C
:100050000C9407010C9407010C9407010C94070100
:100060000C9407010C94070142757A7A65722E7020
:10007000696E203D20002050696E3A2000204475B2
:10008000726174696F6E3A20004E6F74652046721B
:10009000657175656E63793A2000436F6E73747293
:1000A0007563746F723A20424A205369676E616CBF
:1000B000204D616E61676572005369676E616C20E7
:1000C0004D616E6167657220496E697469616C6922
:1000D0007A656400466C6173682044616E63652EC6
:1000E0002E2E0000000000250028002B000000003C
:1000F000002300260029000404040404040404026C
:1001000002020202020303030303030102040810B4
:10011000204080010204081020010204081020522F
:10012000656164793A00496E697469616C697A69DC
:100130006E672048433035205574696C69747900C6
:10014000506572666F726D696E6720536574757065
:10015000004641494C55524500506F776572204327
:1001600075742E2E2E002062797465732073656E6F
:1001700074000A43757272656E74205374617465FD
:100180003A00426C7565746F6F7468206E6F7420EE
:10019000617661696C61626C65003D000000000081
:1001A000240027002A0000000008000201000003CC
:1001B000040700000000000000000200FB0D1124F5
:1001C0001FBECFEFD8E0DEBFCDBF23E0AEE6B2E08A
:1001D00001C01D92A13CB207E1F712E0A0E0B1E03E
:1001E000EAEBFFE102C005900D92AE36B107D9F7F8
:1001F00010E0CFEDD0E004C02197FE010E94A30ED5
:10020000CE3DD107C9F70E94F0080C94DB0F0C9487
:100210000000FC01538D448D252F30E0842F90E0A9
:10022000821B930B541710F0CF96089501970895F1
:10023000FC01918D828D981761F0828DDF01A80FEE
:10024000B11D5D968C91928D9F5F9F73928F90E010
:1002500008958FEF9FEF0895FC01918D828D98177F
:1002600031F0828DE80FF11D858D90E008958FEFBC
:100270009FEF0895FC01918D228D892F90E0805C85
:100280009F4F821B91098F739927089588ED92E003
:100290000E943A0121E0892B09F420E0822F089581
:1002A000FC01848DDF01A80FB11DA35ABF4F2C9113
:1002B000848D90E001968F739927848FA689B789E2
:1002C0002C93A089B1898C9180648C93938D848DBB
:1002D000981306C00288F389E02D80818F7D80838A
:1002E0000895EF92FF920F931F93CF93DF93EC014A
:1002F00081E0888F9B8D8C8D981305C0E889F989E2
:10030000808185FD24C0F62E0B8D10E00F5F1F4FFE
:100310000F731127E02E8C8DE8120CC00FB607FC6E
:10032000FACFE889F989808185FFF5CFCE010E9457
:100330005001F1CF8B8DFE01E80FF11DE35AFF4F05
:10034000F0820B8FEA89FB898081806207C0EE8989
:10035000FF896083E889F98980818064808381E0F6
:1003600090E0DF91CF911F910F91FF90EF90089552
:10037000CF93DF93EC01888D8823C9F0EA89FB894C
:10038000808185FD05C0A889B9898C9186FD0FC043
:100390000FB607FCF5CF808185FFF2CFA889B98918
:1003A0008C9185FFEDCFCE010E945001E7CFDF9108
:1003B000CF91089580E090E0892B29F00E944601BA
:1003C00081110C9400000895833081F028F481306D
:1003D00099F08230A1F008958730A9F08830B9F003
:1003E0008430D1F4809180008F7D03C080918000A3
:1003F0008F7780938000089584B58F7702C084B58D
:100400008F7D84BD08958091B0008F7703C0809167
:10041000B0008F7D8093B00008953FB7F89480912D
:10042000CD029091CE02A091CF02B091D00226B51C
:10043000A89B05C02F3F19F00196A11DB11D3FBF1C
:10044000BA2FA92F982F8827820F911DA11DB11DAA
:10045000BC01CD0142E0660F771F881F991F4A95A6
:10046000D1F708952091C6023091C70228173907A5
:1004700071F49091C5028091C402981741F0E09107
:10048000C502F0E0EC57FD4F808190E008958FEFBA
:100490009FEF089508951F93CF93DF93DC015C963F
:1004A0002D913C915D972115310539F481E090E063
:1004B00013969C938E9312973DC05196ED91FC91AB
:1004C000529750969C915097892F80951FB75E96B2
:1004D0004C915E9741FB772770F941FD6095F89448
:1004E0004081772311F0492B01C048234083E90163
:1004F0002197F1F748E0508160FF02C0592B01C0FD
:1005000058235083E9012197F1F76695415099F7F7
:10051000772321F090818923808303C08081982BE9
:1005200090831FBF5C968D919C915D970197F1F729
:1005300021E030E0C901DF91CF911F910895209112
:10054000C6023091C7022817390771F48091C4029E
:100550002091C50290E0805C9F4F821B910960E46E
:1005600070E00E945C0E089580E090E00895209174
:10057000C6023091C70228173907B9F49091C50215
:100580008091C402981789F0E091C502F0E0EC5721
:10059000FD4F80812091C50230E02F5F3F4F2F73C8
:1005A00033272093C50290E008958FEF9FEF0895C1
:1005B000089580E090E008950E94D60F1F920F9258
:1005C0000FB60F9211242F933F934F935F936F9326
:1005D0007F938F939F93AF93BF93EF93FF9388ED98
:1005E00092E00E945001FF91EF91BF91AF919F91D6
:1005F0008F917F916F915F914F913F912F910F90CC
:100600000FBE0F901F9018951F920F920FB60F926A
:1006100011242F938F939F93EF93FF93E091E80220
:10062000F091E9028081E091EE02F091EF0282FD0B
:1006300012C090818091F1028F5F8F732091F2023E
:10064000821751F0E091F102F0E0E852FD4F958FF2
:100650008093F10201C08081FF91EF919F918F9172
:100660002F910F900FBE0F901F901895CF93DF938F
:10067000282F30E0F901EA55FE4F8491F901E55F3A
:10068000FE4FD491F901E950FF4FC491CC2391F072
:1006900081110E94E401EC2FF0E0EE0FFF1FE35107
:1006A000FF4FA591B491EC91ED2381E090E021F40E
:1006B00080E002C080E090E0DF91CF9108951F9329
:1006C000CF93DF93282F30E0F901EA55FE4F849154
:1006D000F901E55FFE4FD491F901E950FF4FC49154
:1006E000CC23C9F0162F81110E94E401EC2FF0E019
:1006F000EE0FFF1FED51FF4FA591B4918FB7F89406
:10070000111105C09C91ED2FE095E92302C0EC91F9
:10071000ED2BEC938FBFDF91CF911F910895CF9375
:10072000DF9390E0FC01E55FFE4F2491FC01E9506E
:10073000FF4F8491882361F190E0880F991FFC019D
:10074000E456FE4FC591D491FC01ED51FF4FA591A8
:10075000B491611109C09FB7F894888120958223D4
:100760008883EC912E230BC0623061F49FB7F8941C
:100770003881822F809583238883EC912E2B2C93B4
:100780009FBF06C08FB7F894E8812E2B28838FBFB8
:10079000DF91CF9108958F929F92AF92BF92CF92A7
:1007A000DF92EF92FF926B017C010E940D024B01E0
:1007B0005C01C114D104E104F104F1F00E940D02C6
:1007C000DC01CB0188199909AA09BB09883E93402D
:1007D000A105B10570F321E0C21AD108E108F108C2
:1007E00088EE880E83E0981EA11CB11CC114D104B0
:1007F000E104F10419F7DDCFFF90EF90DF90CF9087
:10080000BF90AF909F908F9008952FB7F89460910C
:10081000C9027091CA028091CB029091CC022FBF85
:1008200008951F920F920FB60F9211242F933F93AA
:100830008F939F93AF93BF938091C9029091CA0207
:10084000A091CB02B091CC023091C80223E0230FDB
:100850002D3720F40196A11DB11D05C026E8230FF8
:100860000296A11DB11D2093C8028093C9029093E6
:10087000CA02A093CB02B093CC028091CD0290919A
:10088000CE02A091CF02B091D0020196A11DB11D60
:100890008093CD029093CE02A093CF02B093D0026A
:1008A000BF91AF919F918F913F912F910F900FBE6C
:1008B0000F901F901895CF9360E086E00E948F0301
:1008C00086E00E943603C1E0892B19F4C0E060E0A5
:1008D00001C061E08AE00E945F0361E086E00E945F
:1008E0008F038C2FCF910895CF9383E00E9436031E
:1008F000C1E0892B19F4C0E060E001C061E08CE048
:100900000E945F038C2FCF9108950F931F93CF9375
:10091000DF938C01EB01FC018685978568177907C9
:1009200069F182E791E00E944F07CE010E94C10861
:10093000C0FF04C08FEF91E00E943C07C1FF04C0DC
:100940008EE092E00E943C07C2FF04C08DE192E07D
:100950000E943C07C3FF04C089E292E00E943C076A
:10096000C4FF06C06AE372E088ED92E00E94EE08E0
:10097000C5FF04C080E592E00E943C07F801D787DC
:10098000C687DF91CF911F910F9108950F931F9309
:10099000CF93DF938C0160E08BE00E945F0360E007
:1009A0008AE00E945F0360E08CE00E945F0360E0E9
:1009B00084E00E945F0389E00E943603892B39F0AE
:1009C00061E084E00E945F03C1E0D0E006C060E027
:1009D00084E00E945F03C0E0D0E0C8010E945B0495
:1009E00081112296C8010E94740481112496F80195
:1009F0008285882371F061E08BE00E945F03F8013B
:100A00008285811103C0CE01089605C0CE014896AB
:100A100002C0CE018096DF91CF911F910F91089572
:100A20006115710579F0FB0101900020E9F731971C
:100A3000AF01461B570BDC01ED91FC910280F38165
:100A4000E02D099480E090E00895EF92FF920F93DB
:100A50001F93CF93DF93CDB7DEB76E970FB6F894A1
:100A6000DEBF0FBECDBF8C017B0188ED92E00E94FE
:100A7000EE088AE991E00E944F07B701D8018D91F5
:100A80009C910E941005892B29F48FE592E00E9429
:100A90003C074AC062E370E080E090E00E94CB0334
:100AA000F80180819181DC01ED91FC910084F18558
:100AB000E02D0995892BA1F1F12CF801808191811C
:100AC000DC01ED91FC910084F185E02D0995892BE5
:100AD00009F1EE24E394EF0CF80180819181DC01AF
:100AE000ED91FC910284F385E02D0995E1E0F0E0C1
:100AF000EC0FFD1FEF0DF11DF7FCFA958083E1E08F
:100B0000F0E0EC0FFD1FEE0DF11DE7FCFA951082F1
:100B1000FE2CD3CFCE0101960E943C0781E005C098
:100B200082E891E00E94700780E06E960FB6F8941C
:100B3000DEBF0FBECDBFDF91CF911F910F91FF9010
:100B4000EF9008951F920F920FB60F9211242F93DA
:100B50003F934F935F936F937F938F939F93AF9345
:100B6000BF93EF93FF93E091C602F091C7023097D5
:100B700009F451C0968DA685B785858591FF04C07F
:100B80009C91892329F447C09C91892309F043C093
:100B9000A389B4899C918589809589238C938689C2
:100BA00097890197F1F7608D718DA685B785558579
:100BB00038E020E0CB010197F1F7822F90E0959586
:100BC0008795282F4C91452309F02068315091F7E3
:100BD000868D81FD20958091C40290E001968F73EF
:100BE00099273091C502381749F0A091C402B0E0AE
:100BF000AC57BD4F2C938093C40203C0868D816097
:100C0000868F828D938D0197F1F7A389B4899C918A
:100C10008589892B8C93FF91EF91BF91AF919F9123
:100C20008F917F916F915F914F913F912F910F9095
:100C30000FBE0F901F901895E091C602F091C70269
:100C4000E817F90769F4A389B4899C91858980958F
:100C500089238C931092C7021092C60281E00895F6
:100C600080E00895CF93DF93EC018A8D9B8D892BD3
:100C7000F1F08091C6029091C7028C179D07B9F0E0
:100C8000009711F00E941C068E8D8E7F8E8F109221
:100C9000C4021092C502D093C702C093C602EB896A
:100CA000FC8990818D89892B808381E001C080E05F
:100CB000DF91CF910895CF93DF93EC019A01AB01BF
:100CC0001B8E1A8E198E188E1F8A1E8A60E079E09C
:100CD0008DE390E00E94700EF9012430310518F088
:100CE000C901039702C081E090E09D8F8C8F6C85D5
:100CF000663108F069C0C9019695879584319105E0
:100D000010F0439702C081E090E09F8B8E8B369766
:100D100018F0C901059702C081E090E0998F888F93
:100D2000C901880F991F280F391F369527953695C9
:100D300027952D30310518F02C50310902C021E0E3
:100D400030E03B8F2A8F90916800683050F021E0AE
:100D50006E3008F420E081E001C0880F2A95EAF7A0
:100D600001C084E0892B809368008C85883038F03E
:100D70008E3040F0863148F020E030E008C02DE6AB
:100D800030E005C02BE630E002C02CE630E03C8BC2
:100D90002B8B883030F491E001C0990F8A95EAF7E7
:100DA0000EC0282F30E08E3018F42850310902C0D0
:100DB0002E50310991E001C0990F2A95EAF79D8BD9
:100DC0008C8D9D8D0197F1F7CE01DF91CF910C9421
:100DD0003206CF92DF92EF92FF920F931F93CF9341
:100DE000DF936C017A018B01C0E0D0E0CE15DF0506
:100DF00089F0D8016D918D01D601ED91FC910190A2
:100E0000F081E02DC6010995892B11F47E0102C005
:100E10002196ECCFC701DF91CF911F910F91FF90E9
:100E2000EF90DF90CF900895E8EDF2E0A089B189CE
:100E300082E08C93A485B5851C92A685B78580E158
:100E40008C93108EA489B58986E08C93A289B3898E
:100E50008C9180618C93A289B3898C9188608C93EA
:100E6000A289B3898C9180688C930288F389E02DE4
:100E700080818F7D80830895CF93DF93BC0188EDBF
:100E800092E00E941005EC016EE671E088ED92E0C0
:100E90000E9410058C0F9D1FDF91CF9108950F9335
:100EA0001F93CF93DF938C01C0E0D0E0F801EC0FEB
:100EB000FD1F6491662371F0E091D802F091D90290
:100EC0000190F081E02D88ED92E00995892B11F0D9
:100ED0002196ECCFCE01DF91CF911F910F91089514
:100EE000CF93DF930E944F07EC016EE671E088ED2F
:100EF00092E00E9410058C0F9D1FDF91CF91089505
:100F00001F93CF93DF93182FC6E0D0E02197A9F06D
:100F100061E0812F0E945F0362E370E080E090E077
:100F20000E94CB0360E0812F0E945F0362E370E0C8
:100F300080E090E00E94CB03E9CFDF91CF911F9139
:100F400008958F929F92AF92BF92CF92DF92EF92CD
:100F5000FF926B017C010E9405044B015C01C60EEF
:100F6000D71EE81EF91E0E940504681579058A053A
:100F70009B0528F0C616D706E806F906A0F7FF90ED
:100F8000EF90DF90CF90BF90AF909F908F9008959B
:100F900090910001981324C0EAEBF1E0E4919FEFF7
:100FA00090930001E130B9F098F0E230C9F49091EB
:100FB00070009D7F9093700091E09093B0009091AD
:100FC000B100987F94609093B1001092B30008C074
:100FD00010926E0005C090916F009D7F90936F00FE
:100FE00060E00C945F031F920F920FB60F921124D2
:100FF0002F933F934F935F936F937F938F939F9321
:10100000AF93BF93EF93FF938091D4029091D50259
:10101000A091D602B091D702892B8A2B8B2B51F14C
:101020008091D302E091D102F091D2029081892780
:1010300080838091D4029091D502A091D602B09184
:10104000D702181619061A061B06C4F48091D4029A
:101050009091D502A091D602B091D7020197A10933
:10106000B1098093D4029093D502A093D602B09395
:10107000D70204C0809100010E94C807FF91EF9140
:10108000BF91AF919F918F917F916F915F914F91A0
:101090003F912F910F900FBE0F901F9018954F9278
:1010A0005F926F927F92EF92FF920F931F93CF9375
:1010B000DF93CDB7DEB7A1970FB6F894DEBF0FBEB2
:1010C000CDBF7C01FA01CB0119A2223008F42AE03D
:1010D0008E010F5D1F4F422E512C612C712CBF01D0
:1010E000A30192010E943A0EF901CA0101501109AF
:1010F0006A3014F4605D01C0695CD8016C93232BE5
:10110000242B252B61F7B801C7010E941005A19679
:101110000FB6F894DEBF0FBECDBFDF91CF911F9108
:101120000F91FF90EF907F906F905F904F90089598
:10113000CF92DF92EF92FF92CF93DF936B017C010E
:10114000E091D802F091D9020190F081E02D6DE29A
:1011500088ED92E00995EC0144275527BA014C1916
:101160005D096E097F092AE088ED92E00E944F0830
:101170008C0F9D1FDF91CF91FF90EF90DF90CF906C
:101180000895CF93DF93AC01990F660B770B77FF30
:1011900005C0CB01BA010E94980805C02AE088ED7D
:1011A00092E00E944F08EC016EE671E088ED92E05B
:1011B0000E9410058C0F9D1FDF91CF910895AC0107
:1011C000990F660B770B77FF04C0CB01BA010C9423
:1011D00098082AE088ED92E00C944F080C941005D2
:1011E000789484B5826084BD84B5816084BD85B502
:1011F000826085BD85B5816085BD80916E0081600E
:1012000080936E00109281008091810082608093B3
:1012100081008091810081608093810080918000B5
:101220008160809380008091B10084608093B100E0
:101230008091B00081608093B00080917A008460DA
:1012400080937A0080917A00826080937A00809106
:101250007A00816080937A0080917A008068809320
:101260007A001092C1001092B9031092BA03109242
:10127000BB031092BC031092770310927803109274
:10128000790310927A0368EB7BE080E090E00E94A3
:10129000A10788ED92E09093B8038093B7030E9472
:1012A00014070E940504609377037093780380937A
:1012B000790390937A036DE471E08091B703909184
:1012C000B8030E94EE086AE070E080E090E00E94BF
:1012D000A10781E080938B030E94050400917703AE
:1012E000109178032091790330917A03DC01CB01CE
:1012F000801B910BA20BB30B81329105A105B105A7
:1013000070F441E250E060E070E08A019B01081B4C
:10131000190B2A0B3B0BC901B8010E94A1070E94BF
:101320000504609377037093780380937903909317
:101330007A036FE571E08091B7039091B8030E9442
:10134000EE0866E671E08091B7039091B8030E94C1
:10135000EE0866E671E08091B7039091B8030E94B1
:10136000EE0866E671E08091B7039091B8030E94A1
:10137000EE0866E671E08091B7039091B8030E9491
:10138000EE0868E671E08091B7039091B8030E947F
:10139000EE086AE070E080E090E00E94A1070E9401
:1013A000140780E491E00E94700764E670E080E03A
:1013B00090E00E94CB0382E290E00E94A90EEC0133
:1013C0008FEF9FEF998788871A861B861C861D865C
:1013D0001F861E8681E791E0998B888B87E091E0DC
:1013E0009B8B8A8B86E791E09D8B8C8B81E891E0CB
:1013F0009F8B8E8B8FE891E0998F888F8AE991E09F
:101400009B8F8A8F86EA91E09D8F8C8F81EB91E094
:101410009F8F8E8F8CEB91E099A388A3D0937F024E
:10142000C0937E020E94140786E291E00E9470073A
:1014300061E08CE00E948F0361E08BE00E948F03EB
:1014400061E08AE00E948F0361E087E00E948F03E1
:1014500060E088E00E948F0361E086E00E948F03D5
:1014600060E089E00E948F0361E084E00E948F03C6
:1014700060E083E00E948F0384E090E00E94A90E68
:101480008C01DC011C929B838A8385E090E012969C
:101490009C938E93119761E00E948F03F8018381E2
:1014A000882359F088E690E00E944F07D8011196F2
:1014B0008D919C9112970E94C108EA80FB80F701F0
:1014C0008381882359F189E890E00E944F072AE040
:1014D0004FEF50E060E070E088ED92E00E944F082E
:1014E0008DE790E00E944F072AE044EF51E060E072
:1014F00070E088ED92E00E944F0886E790E00E943D
:101500004F07D70111968D919C9112970E94DF0889
:101510006EE671E088ED92E00E941005F70181818E
:10152000928120910001281721F02F3F09F0C5C0BA
:1015300004C0EAEBF1E014917FC080930001EAEB74
:10154000F1E0E491EF3F09F4B8C0E13031F1E2306D
:1015500009F44AC0E1116FC014BC15BC24B5226067
:1015600024BD25B5216025BD9C013327F901E95033
:10157000FF4FE491F0E0EE0FFF1FED51FF4F45915B
:1015800054915093730240937202F901E55FFE4F4C
:10159000E491E093710210E051C01092800010922B
:1015A000810020918100286020938100209181009A
:1015B0002160209381009C013327F901E950FF4FFE
:1015C000E491F0E0EE0FFF1FED51FF4F4591549174
:1015D0005093700240936F02F901E55FFE4FE49172
:1015E000E0936E0211E02AC01092B0001092B10098
:1015F0002091B00022602093B0002091B1002160C2
:101600002093B1009C013327F901E950FF4FE49189
:10161000F0E0EE0FFF1FED51FF4F459154915093B5
:10162000D2024093D102F901E55FFE4FE491E093CD
:10163000D30212E003C01E2F17FD3FC061E00E94DD
:101640008F03112309F4BFC2123009F4B4C2113060
:10165000F1F480918100887F8160809381008BE824
:101660009AE790938900809388008FEF90E0A0E044
:10167000B0E08093740290937502A0937602B093C9
:10168000770280916F00826080936F0016C01230E5
:10169000A1F48BE88093B3008FEF90E0A0E0B0E07E
:1016A0008093D4029093D502A093D602B093D70230
:1016B0008091700082608093700064EF71E080E040
:1016C00090E00E94CB03D70111968C910E94C8072D
:1016D00061E070E080E090E00E94CB03F70181813F
:1016E0000E94C80781E090E00E94A90E8C018AE95F
:1016F00090E00E9470071F830E8389EB90E00E94A8
:10170000700784ED90E00E9470078CE090E00E94EA
:1017100080078BE090E00E9480078AE090E00E94C2
:10172000800784E090E00E9480078FE190E00E94B3
:10173000A90E8C01DC0113961C921E92129788EE62
:1017400093E0A0E0B0E0F80184839583A683B7839B
:101750008FE091E091838083178A168A118E108E14
:10176000138E128E158E148E668D6E7F6D7F668F32
:101770006695617081E0682787E00E945F0361E001
:1017800087E00E948F03E2E1F1E0E491D8015096F6
:10179000EC93EEEFF0E0E491F0E0EE0FFF1FED517F
:1017A000FF4F85919491F801928B818B60E088E0E6
:1017B0000E948F03D8015E968C9181FD04C061E088
:1017C00088E00E945F0388E0F8018487E3E1F1E0AC
:1017D000E491D8011D96EC93EFEFF0E0E491F0E096
:1017E000EE0FFF1FE351FF4F85919491F80197870A
:1017F000868719830883CE010E945B04811108C08B
:1018000040E855E260E070E0888199810E945B06C3
:10181000CE010E94C604BC01CE010E9485048FE166
:1018200091E00E94700780917E0290917F020E9459
:10183000C60490937D0280937C0287EC91E00E9425
:101840003C0711E00E940504C0908002D090810204
:10185000E0908202F0908302DC01CB018C199D099B
:10186000AE09BF0986399105A105B10508F4A0C0EC
:101870000E9405046093800270938102809382022B
:101880009093830261E070E080E090E00E94A10705
:101890000E94050460937703709378038093790323
:1018A00090937A036FE571E08091B7039091B8034C
:1018B0000E94EE0866E671E08091B7039091B8034C
:1018C0000E94EE08D0E0C0E0C12CD12C760120E0CF
:1018D000822F0D2E01C0880F0A94EAF7C82BDF5F14
:1018E000D83031F00DE0C016D104E104F104A9F4C0
:1018F0004C2F50E060E070E02AE08091B7039091B7
:10190000B8030E944F0867ED71E08091B703909192
:10191000B8030E94EE08D0E0C0E061E070E080E033
:1019200090E00E94A1072FEFC21AD20AE20AF20A3F
:101930003EE0C316D104E104F10471F0F1E0CF16EA
:10194000D104E104F10419F28C2D0E94360321E048
:10195000892B09F0BDCFBBCF61E070E080E090E063
:101960000E94A10766E671E08091B7039091B803E9
:101970000E94EE0866E671E08091B7039091B8038B
:101980000E94EE0866E671E08091B7039091B8037B
:101990000E94EE0868E671E08091B7039091B80369
:1019A0000E94EE0861E070E080E090E00E94A107F4
:1019B000E0907E02F0907F02C7010E94C604EC0115
:1019C00080917C0290917D02C817D90741F0BE0139
:1019D000C7010E948504D0937D02C0937C02C09110
:1019E0007E02D0917F02CE010E947404882309F404
:1019F00062C08B8581115FC01B8789E591E00E94E1
:101A00004F07888199810E941C0662E370E080E0A4
:101A100090E00E94CB0340E056E960E070E08881EE
:101A200099810E945B0669ED71E088ED92E00E9469
:101A3000EE0868897989CE010E9425058A87882366
:101A400021F16C897D89CE010E9425056E897F89EF
:101A5000CE010E942505688D798DCE010E94250555
:101A60006A8D7B8DCE010E9425056C8D7D8DCE010A
:101A70000E9425056E8D7F8DCE010E94250568A1EF
:101A800079A1CE010E94250516C0888199810E9406
:101A90001C0662E370E080E090E00E94CB0340E827
:101AA00055E260E070E0888199810E945B0681E5E3
:101AB00091E00E94700788ED92E00E943A01892B24
:101AC000C9F1E12CF12C88ED92E00E943A01892BBA
:101AD00009F188ED92E00E941801082F682F88ED27
:101AE00092E00E94710188819981DC01ED91FC9165
:101AF0000190F081E02D602F0995892B39F46DEE6E
:101B000071E088ED92E00E94EE08DDCFBFEFEB1AA6
:101B1000FB0AD9CFE114F10469F0C7010E94DF0884
:101B200086E691E00E94700762E370E080E090E05A
:101B30000E94CB03888199810E9432068881998115
:101B4000DC01ED91FC910084F185E02D0995892B54
:101B500049F1E12CF12C88819981DC01ED91FC9116
:101B60000084F185E02D0995892B91F08881998178
:101B7000DC01ED91FC910284F385E02D0995682F3D
:101B800088ED92E00E947101BFEFEB1AFB0AE3CFF0
:101B9000E114F10439F0C7010E94DF088FEE91E0F3
:101BA0000E943C0764EF71E080E090E00E94CB036C
:101BB0000E94DA0147CE8091B100887F85608093D2
:101BC000B10084EF67CD85B5887F846085BD89E7E6
:101BD00087BD8FEF90E0A0E0B0E080937802909313
:101BE0007902A0937A02B0937B0280916E008260AA
:101BF00080936E0062CDE8EDF2E01382128288EEEF
:101C000093E0A0E0B0E084839583A683B78381E26C
:101C100091E09183808385EC90E09587848784ECC4
:101C200090E09787868780EC90E0918B808B81ECA9
:101C300090E0938B828B82EC90E0958B848B86EC8A
:101C400090E0978B868B118E128E138E148EE5E7A3
:101C5000F3E0168217821086118612861386148688
:101C6000158616861786108A118A128A138A148A94
:101C7000158A0895A1E21A2EAA1BBB1BFD010DC0F7
:101C8000AA1FBB1FEE1FFF1FA217B307E407F5072C
:101C900020F0A21BB30BE40BF50B661F771F881F08
:101CA000991F1A9469F760957095809590959B019E
:101CB000AC01BD01CF01089597FB072E16F40094E7
:101CC00007D077FD09D00E948F0E07FC05D03EF4A7
:101CD000909581959F4F0895709561957F4F0895D8
:101CE000052E97FB1EF400940E94870E57FD07D027
:101CF0000E943A0E07FC03D04EF40C94870E5095C8
:101D00004095309521953F4F4F4F5F4F08959095E7
:101D10008095709561957F4F8F4F9F4F0895AA1BB7
:101D2000BB1B51E107C0AA1FBB1FA617B70710F0C6
:101D3000A61BB70B881F991F5A95A9F780959095F8
:101D4000BC01CD010895EE0FFF1F0590F491E02D29
:101D50000994CF93DF938230910510F482E090E0F4
:101D6000E091BF03F091C00320E030E0C0E0D0E09C
:101D7000309711F14081518148175907C0F0481739
:101D8000590761F482819381209719F09B838A839C
:101D90002BC09093C0038093BF0326C0211531054B
:101DA00019F04217530718F49A01BE01DF01EF0141
:101DB0000280F381E02DDCCF2115310509F1281BCC
:101DC000390B2430310590F412968D919C91139724
:101DD0006115710521F0FB019383828304C0909308
:101DE000C0038093BF03FD01329644C0FD01E20FA2
:101DF000F31F81939193225031092D933C933AC064
:101E00002091BD033091BE03232B41F420910301A7
:101E1000309104013093BE032093BD032091010152
:101E2000309102012115310541F42DB73EB74091A3
:101E3000050150910601241B350BE091BD03F09183
:101E4000BE03E217F307A0F42E1B3F0B2817390738
:101E500078F0AC014E5F5F4F2417350748F04E0F06
:101E60005F1F5093BE034093BD038193919302C0C3
:101E7000E0E0F0E0CF01DF91CF9108950F931F9341
:101E8000CF93DF93009709F48CC0FC013297138243
:101E900012820091BF031091C0030115110581F456
:101EA00020813181820F931F2091BD033091BE03A9
:101EB0002817390779F5F093BE03E093BD0371C08D
:101EC000D80140E050E0AE17BF0750F412962D91B4
:101ED0003C911397AD012115310509F1D901F3CFDB
:101EE0009D01DA013383228360817181860F971F00
:101EF0008217930769F4EC0128813981260F371F77
:101F00002E5F3F4F318320838A819B81938382831D
:101F1000452B29F4F093C003E093BF0342C013960E
:101F2000FC93EE931297ED01499159919E01240F74
:101F3000351FE217F30771F480819181840F951F9B
:101F4000029611969C938E938281938113969C9313
:101F50008E931297E0E0F0E0D80112968D919C915B
:101F60001397009719F0F8018C01F6CF8D919C9191
:101F700098012E5F3F4F820F931F2091BD03309138
:101F8000BE032817390769F4309729F41092C0036B
:101F90001092BF0302C0138212821093BE030093FB
:101FA000BD03DF91CF911F910F91089581E090E0E3
:0A1FB000F8940C94DB0FF894FFCFB7
:101FBA00FF0000C10380004F4B0000000000004BEF
:101FCA0002E906D9024A029F02B702320200000061
:101FDA00007101E9060901B8013A0118012C010052
:101FEA00000000DC02E906D902D802DC02DC02DCCD
:101FFA000200000000DC02E906D902D802564D446C
:10200A0050565F317C315F564D4450560D0A00568A
:10201A004D4450525F007C005F564D4450520D0AA9
:10202A000041540A0D0041542B4E414D453F0A0DC3
:10203A000041542B56455253494F4E3F0A0D004119
:10204A00542B524F4C453F0A0D0041542B434D4FE0
:10205A0044453F0A0D0041542B414444523F0A0D66
:10206A000041542B42494E443F0A0D0041542B551E
:10207A004152543F0A0D00536574757020636F6DA9
:10208A00706C65746564003A00456E746572696EB9
:10209A0067204154204D6F64652E2E2E002A0020A1
:1020AA006279746573207265636569766564002078
:1020BA003D20537461747573204869676800203D38
:1020CA0020456E61626C65204869676800203D2082
:1020DA00506F776572204F6E00203D204154205288
:1020EA0065616479204D6F646500203D20496E204A
:1020FA00415420436F6D6D616E64204D6F646500BD
:10210A00203D204E6F726D616C204D6F64650046F4
:0E211A0061696C656420746F2073656E6400EB
:00000001FF
