:100000000C9493000C94BB000C94BB000C94BB00AC
:100010000C94BB000C94BB000C94BB000C94BB0074
:100020000C94BB000C94BB000C94BB000C94BB0064
:100030000C94BB000C94BB000C94BB000C94BB0054
:100040000C94F2020C94BB000C9462030C943C03DD
:100050000C94BB000C94BB000C94BB000C94BB0034
:100060000C94BB000C94BB00436F6E737472756389
:10007000746F723A20424A4275666665724D616ECF
:1000800061676572002A2A2A204641494C4544206E
:10009000544F20414C4C4F43415445204255464615
:1000A00045522000206572726F727320666F756E04
:1000B00064005465737420313A2000426567696EAC
:1000C000696E67205465737431000A2A2A2A204217
:1000D0005546464552204F564552464C4F57202ACA
:1000E0002A2A0054657374203220636F6D706C652A
:1000F00074656400426567696E696E672054657354
:1001000074320044657374727563746F723A20427E
:100110004A4275666665724D616E61676572002957
:100120003D5B0000390511241FBECFEFD8E0DEBFD4
:10013000CDBF11E0A0E0B1E0E4EDFDE002C005902C
:100140000D92A835B107D9F722E0A8E5B1E001C0CA
:100150001D92A430B207E1F710E0C3E9D0E004C07B
:100160002197FE010E94B005C239D107C9F70E944C
:1001700094030C94E8060C9400000F931F93CF9304
:10018000DF938C01C0E0D0E0F801EC0FFD1F64911B
:10019000662371F0E0916301F09164010190F081B8
:1001A000E02D83E691E00995892B11F02196ECCFA3
:1001B000CE01DF91CF911F910F910895CF92DF92E1
:1001C000EF92FF920F931F93CF93DF936C017A010D
:1001D0008B01C0E0D0E0CE15DF0589F0D8016D912C
:1001E0008D01D601ED91FC910190F081E02DC601C9
:1001F0000995892B11F47E0102C02196ECCFC7012D
:10020000DF91CF911F910F91FF90EF90DF90CF90F2
:100210000895089580E090E00895FC01538D448D89
:10022000252F30E0842F90E0821B930B541710F0A1
:10023000CF96089501970895FC01918D828D9817AE
:1002400061F0828DDF01A80FB11D5D968C91928DBA
:100250009F5F9F73928F90E008958FEF9FEF0895B7
:10026000FC01918D828D981731F0828DE80FF11D80
:10027000858D90E008958FEF9FEF0895FC01918D9B
:10028000228D892F90E0805C9F4F821B91098F7394
:100290009927089583E691E00E943E0121E0892B91
:1002A00009F420E0822F0895FC01848DDF01A80F5E
:1002B000B11DA35ABF4F2C91848D90E001968F738E
:1002C0009927848FA689B7892C93A089B1898C91AD
:1002D00080648C93938D848D981306C00288F38973
:1002E000E02D80818F7D80830895EF92FF920F93A0
:1002F0001F93CF93DF93EC0181E0888F9B8D8C8DD2
:10030000981305C0E889F989808185FD24C0F62EFF
:100310000B8D10E00F5F1F4F0F731127E02E8C8D98
:10032000E8120CC00FB607FCFACFE889F989808182
:1003300085FFF5CFCE010E945401F1CF8B8DFE01D8
:10034000E80FF11DE35AFF4FF0820B8FEA89FB891A
:100350008081806207C0EE89FF896083E889F9891E
:1003600080818064808381E090E0DF91CF911F9154
:100370000F91FF90EF900895CF93DF93EC01888D5C
:100380008823C9F0EA89FB89808185FD05C0A88999
:10039000B9898C9186FD0FC00FB607FCF5CF80811F
:1003A00085FFF2CFA889B9898C9185FFEDCFCE0169
:1003B0000E945401E7CFDF91CF91089580E090E053
:1003C000892B29F00E944A0181110C9400000895A4
:1003D000FC0120E030E0858196812817390740F440
:1003E000A381B481A20FB31F1C922F5F3F4FF3CFA5
:1003F000118210820895009769F0FC01019000209D
:10040000E9F73197AF01481B590BBC0183E691E036
:100410000C94DE0080E090E00895CF93DF930E947B
:10042000BD00EC0188E191E00E94FB018C0F9D1F53
:10043000DF91CF910895CF93DF930E94FB01EC01F0
:1004400088E191E00E94FB018C0F9D1FDF91CF910D
:1004500008950C94FB018F929F92AF92BF920F93DD
:100460001F93CF93DF93CDB7DEB7A1970FB6F89464
:10047000DEBF0FBECDBF19A2423008F44AE08E01A4
:100480000F5D1F4F842E912CA12CB12CA50194013E
:100490000E947A05E62FB901CA0101501109EA301C
:1004A00014F4E05D01C0E95CD801EC93232B242B0C
:1004B000252B61F7C8010E94FB01A1960FB6F894A5
:1004C000DEBF0FBECDBFDF91CF911F910F91BF90C7
:1004D000AF909F908F900895CF92DF92EF92FF920E
:1004E000CF93DF936B017C01E0916301F091640194
:1004F0000190F081E02D6DE283E691E00995EC0139
:1005000066277727CB016C197D098E099F094AE080
:100510000E942B028C0F9D1FDF91CF91FF90EF90D7
:10052000DF90CF9008950F931F93CF93DF938C01AB
:100530008FE191E00E94BD00C0E0D0E0D8011396A9
:10054000ED91FC911497EC0FFD1F6081662341F142
:100550006032D4F46A3069F02CF4613091F48BE1AC
:1005600091E009C06D3051F06B3159F485E291E0B2
:1005700002C08FE191E00E94290210C082E291E066
:10058000FACF89E291E0F7CFE0916301F091640145
:100590000190F081E02D83E691E009952196CECF80
:1005A0008BE291E0DF91CF911F910F910C941B0290
:1005B000CF93DF93BC01990F880B990B97FF03C072
:1005C0000E946C0203C04AE00E942B02EC0188E109
:1005D00091E00E94FB018C0F9D1FDF91CF91089548
:1005E0000E94E3061F920F920FB60F9211242F93D1
:1005F0003F938F939F93AF93BF9380915F019091AF
:100600006001A0916101B091620130915E0123E02F
:10061000230F2D3720F40196A11DB11D05C026E83A
:10062000230F0296A11DB11D20935E0180935F01EF
:1006300090936001A0936101B093620180915A018F
:1006400090915B01A0915C01B0915D010196A11DAB
:10065000B11D80935A0190935B01A0935C01B0930C
:100660005D01BF91AF919F918F913F912F910F901D
:100670000FBE0F901F9018951F920F920FB60F92FA
:1006800011242F933F934F935F936F937F938F9397
:100690009F93AF93BF93EF93FF9383E691E00E9404
:1006A0005401FF91EF91BF91AF919F918F917F91F5
:1006B0006F915F914F913F912F910F900FBE0F90CF
:1006C0001F9018951F920F920FB60F9211242F931F
:1006D0008F939F93EF93FF93E0917301F0917401D7
:1006E0008081E0917901F0917A0182FD12C09081C0
:1006F00080917C018F5F8F7320917D01821751F073
:10070000E0917C01F0E0ED59FE4F958F80937C01E4
:1007100001C08081FF91EF919F918F912F910F9058
:100720000FBE0F901F901895CF93DF931F92CDB7F8
:10073000DEB7789484B5826084BD84B5816084BD61
:1007400085B5826085BD85B5816085BD80916E006F
:10075000816080936E0010928100809181008260A0
:1007600080938100809181008160809381008091DD
:1007700080008160809380008091B10084608093CC
:10078000B1008091B00081608093B00080917A00C8
:10079000846080937A0080917A00826080937A00EE
:1007A00080917A00816080937A0080917A008068DD
:1007B00080937A001092C100E0917301F09174016E
:1007C00082E08083E0916F01F09170011082E091EE
:1007D0007101F091720180E1808310927B01E091C0
:1007E0007701F091780186E08083E0917501F091C6
:1007F0007601808180618083E0917501F0917601BE
:10080000808188608083E0917501F091760180811C
:1008100080688083E0917501F091760180818F7D01
:10082000808387E090E00E94B6057C01DC01119690
:100830001C921E9212961C9212970CE211E01696D0
:100840001C930E93159788E690E00E940D02F0929B
:100850005901E09258018DE291E00E942902E09056
:100860005801F09059018CE291E00E94B605F70121
:1008700094838383892B41F485E890E00E940D02E4
:100880008FEF9FEF0E94E8061683058381E0828345
:1008900082E491E00E941B028AE491E00E94290216
:1008A000E0915801F0915901858196810E94D8020A
:1008B00081E591E00E942902E0915801F0915901EF
:1008C0000380F481E02D80E090E02191222329F043
:1008D00001968C32B1E09B07C1F70E94D802C0900C
:1008E0005801D09059018BEB90E00E940D029CE2E0
:1008F000E92EFF24F39400E010E030E321E0230F21
:10090000F6014381548180819181BC016F5F7F4FEB
:1009100071836083FA01E80FF91F3083D6018D914E
:100920009C918C32914048F0C60129830E94930229
:100930008AEC90E00E940D022981D6011396ED9178
:10094000FC9114978D919C91E80FF91F319780814C
:10095000821711F00F5F1F4F2A330CF020E3B1E034
:10096000EB1AF10811F0322FC9CFC6010E94E8013D
:1009700020E030E08AE0E82EF12CD6011396ED91CC
:10098000FC911497E20FF31FC901B7010E9466059D
:1009900080832F5F3F4F2C32B1E03B0771F782EB32
:1009A00090E00E94BD00B801110F880B990B4AE03E
:1009B0000E942B0284EA90E00E940D02F6018381DE
:1009C00094810E941B02C6010E94E8010091580117
:1009D0001091590184EF90E00E940D02C8010E941D
:1009E000E80121E4D80113964D915C9114978D9103
:1009F0009C911197BC016F5F7F4F11967C936E9312
:100A0000FA01E80FF91F20838D919C918C3291405F
:100A100048F3C8010E9493028AEC90E00E940D0204
:100A2000D80113968D919C9114970E941B02C801C6
:100A30000E94E80183EE90E00E940D0200915801AF
:100A400010915901F8018281882361F0F8018381B6
:100A500094810E944B06D80114961C921E92139703
:100A600012961C9283E091E00E940D020E94DE012A
:100A7000FDCFE3E6F1E01382128288EE93E0A0E07E
:100A8000B0E084839583A683B7838AE091E0918365
:100A9000808385EC90E09587848784EC90E097874D
:100AA000868780EC90E0918B808B81EC90E0938B3B
:100AB000828B82EC90E0958B848B86EC90E0978B18
:100AC000868B118E128E138E148E089597FB072E2F
:100AD00016F4009407D077FD09D00E949C0507FC0E
:100AE00005D03EF4909581959F4F0895709561953E
:100AF0007F4F0895A1E21A2EAA1BBB1BFD010DC05A
:100B0000AA1FBB1FEE1FFF1FA217B307E407F507BD
:100B100020F0A21BB30BE40BF50B661F771F881F99
:100B2000991F1A9469F760957095809590959B012F
:100B3000AC01BD01CF010895AA1BBB1B51E107C049
:100B4000AA1FBB1FA617B70710F0A61BB70B881F5D
:100B5000991F5A95A9F780959095BC01CD010895EC
:100B6000EE0FFF1F0590F491E02D0994CF93DF93D2
:100B70008230910510F482E090E0E0910202F09161
:100B8000030220E030E0C0E0D0E0309711F1408176
:100B9000518148175907C0F04817590761F48281FD
:100BA0009381209719F09B838A832BC09093030233
:100BB0008093020226C02115310519F04217530710
:100BC00018F49A01BE01DF01EF010280F381E02DEC
:100BD000DCCF2115310509F1281B390B24303105F3
:100BE00090F412968D919C9113976115710521F0E7
:100BF000FB019383828304C09093030280930202DB
:100C0000FD01329644C0FD01E20FF31F81939193E1
:100C1000225031092D933C933AC02091000230912B
:100C20000102232B41F42091020130910301309302
:100C30000102209300022091000130910101211551
:100C4000310541F42DB73EB74091040150910501A3
:100C5000241B350BE0910002F0910102E217F3072B
:100C6000A0F42E1B3F0B2817390778F0AC014E5F1C
:100C70005F4F2417350748F04E0F5F1F5093010256
:100C8000409300028193919302C0E0E0F0E0CF0135
:100C9000DF91CF9108950F931F93CF93DF93009728
:100CA00009F48CC0FC013297138212820091020277
:100CB000109103020115110581F420813181820F09
:100CC000931F20910002309101022817390779F50E
:100CD000F0930102E093000271C0D80140E050E0BF
:100CE000AE17BF0750F412962D913C911397AD01AA
:100CF0002115310509F1D901F3CF9D01DA013383C3
:100D0000228360817181860F971F8217930769F490
:100D1000EC0128813981260F371F2E5F3F4F318329
:100D200020838A819B8193838283452B29F4F093CE
:100D30000302E093020242C01396FC93EE931297D3
:100D4000ED01499159919E01240F351FE217F307D8
:100D500071F480819181840F951F029611969C9366
:100D60008E938281938113969C938E931297E0E0E9
:100D7000F0E0D80112968D919C911397009719F08D
:100D8000F8018C01F6CF8D919C9198012E5F3F4F19
:100D9000820F931F2091000230910102281739071A
:100DA00069F4309729F4109203021092020202C0F3
:100DB000138212821093010200930002DF91CF91FF
:100DC0001F910F91089581E090E0F8940C94E8064B
:040DD000F894FFCFC5
:100DD400000004028000000000007501DE000D0127
:100DE400BC013E011C0130010D0A00534F48004C68
:100DF4004600435200455343003F005D00416C6C84
:100E04006F636174696E67204275666665722E2E23
:100E14002E00535543434553530053697A653A2092
:080E2400004C656E3A2000004D
:00000001FF
