:1000000007C1000035C1000033C1000031C100004C
:100010002FC100002DC100002BC1000029C100002C
:1000200027C1000025C1000023C1000021C100003C
:100030001FC100001DC100001BC1000019C100004C
:1000400017C1000058C6000013C1000011C1000014
:100050000FC100000DC100000BC100007BC50000F6
:1000600007C1000041C5000016C5000001C1000025
:10007000FFC00000FDC00000FBC00000F9C0000090
:100080000DC60000F5C00000F3C00000F1C0000084
:10009000EFC00000EDC00000EBC00000E9C00000B0
:1000A000E7C00000E5C00000CCC50000E1C00000D2
:1000B000DFC00000DDC00000DBC0000095C500000F
:1000C000D7C00000D5C00000D3C00000D1C00000E0
:1000D000CFC00000CDC00000CBC00000C9C00000F0
:1000E000C7C00000CF02D202C102C502C902090383
:1000F000D602DA02E002E402E802EE02F202F602BE
:100100000903FC020003040300000A0B02090C0DA2
:100110000E080703040100000000000000000000BA
:1001200000000000000000000000000000000000CF
:10013000000000001211100000000000000000008C
:1001400000000000000000000000000000000000AF
:100150002200250028002B002E003100340002016F
:100160000000050108010B01000021002400270008
:100170002A002D00300033000101000004010701B6
:100180000A0105050505070508080808020202021C
:100190000A0A080804040404010101010101010123
:1001A0000303030303030303040707070C0C0C0CEE
:1001B0000C0C0C0C020202020606060606060606D7
:1001C0000B0B0B0B0B0B0B0B010210202008081064
:1001D00020401020408002010201080402010102B7
:1001E0000408102040808040201008040201800490
:1001F00002018040201008040201080402010102EB
:100200000408102040800102040810204080A80645
:1002100011241FBECFEFD1E2DEBFCDBF00E00CBF87
:1002200012E0A0E0B2E0EAEAF2E100E00BBF02C0B7
:1002300007900D92A432B107D9F723E0A4E2B2E00F
:1002400001C01D92AD3AB207E1F711E0C8E0D1E07C
:1002500000E006C021970109802FFE010E94470996
:10026000C730D10780E00807A9F70BD60C945309D3
:10027000C7CECF92DF92EF92FF920F931F932FB7CB
:10028000F894C0902D02D0902E02E0902F02F090B2
:1002900030022FBFDC01CB018C0D9D1DAE1DBF1D9B
:1002A0004FB7F89400912D0210912E0220912F0249
:1002B000309130024FBF0C151D052E053F0528F06B
:1002C00080179107A207B30758F71F910F91FF906E
:1002D000EF90DF90CF900895CF92DF92EF92FF9250
:1002E0000F931F93CF93DF936C017A018B01C0E0D2
:1002F000D0E0CE15DF0589F0D8016D918D01D601D2
:10030000ED91FC910190F081E02DC6011995892BAA
:1003100011F47E0102C02196ECCFC701DF91CF918D
:100320001F910F91FF90EF90DF90CF900895089567
:1003300080E090E00895FC01538D448D252F30E03E
:10034000842F90E0821B930B541710F0CF960895E2
:1003500001970895FC01918D828D981761F0828D2F
:10036000DF01A80FB11D5D968C91928D9F5F9F73E9
:10037000928F90E008958FEF9FEF0895FC01918D8B
:10038000828D981731F0828DE80FF11D858D90E0F8
:1003900008958FEF9FEF0895FC01918D228D892F95
:1003A00090E0805C9F4F821B91098F73992708957D
:1003B00081E392E0F1DF21E0892B09F420E0822F34
:1003C0000895FC01848DDF01A80FB11DA35ABF4F12
:1003D0002C91848D90E001968F739927848FA68944
:1003E000B7892C93A089B1898C9180648C93938D6B
:1003F000848D981306C00288F389E02D80818F7D5B
:1004000080830895EF92FF920F931F93CF93DF9312
:10041000EC0181E0888F9B8D8C8D981305C0E88955
:10042000F989808185FD23C0F62E0B8D10E00F5FCA
:100430001F4F0F731127E02E8C8DE8120BC00FB6E3
:1004400007FCFACFE889F989808185FFF5CFCE01D5
:10045000B8DFF2CF8B8DFE01E80FF11DE35AFF4F9D
:10046000F0820B8FEA89FB898081806207C0EE8968
:10047000FF896083E889F98980818064808381E0D5
:1004800090E0DF91CF911F910F91FF90EF90089531
:10049000CF93DF93EC01888D8823C1F0EA89FB8933
:1004A000808185FD05C0A889B9898C9186FD0EC023
:1004B0000FB607FCF5CF808185FFF2CFA889B989F7
:1004C0008C9185FFEDCFCE017CDFE8CFDF91CF911E
:1004D000089580E090E0892B19F06ADF811125C032
:1004E00080E090E0892B41F080E090E0892B21F0C2
:1004F0000E94000081111CC080E090E0892B41F037
:1005000080E090E0892B21F00E940000811113C04F
:1005100080E090E0892BA1F080E090E0892B81F0D1
:100520000E94000081110AC008950E940000D8CFE7
:100530000E940000E1CF0E940000EACF0C9400006E
:100540000895362F90E0FC01E85FFE4F4491FC01D6
:10055000E853FE4F2491FC01EE57FE4F94919923EE
:1005600009F46AC0442309F454C050E0FA013197F9
:10057000E231F10508F04DC08827EE58FF4F8F4F4C
:1005800086C6809180008F7707C0809180008F7D24
:1005900003C080918000877F809380003AC084B53B
:1005A0008F7702C084B58F7D84BD33C08091B00049
:1005B0008F7703C08091B0008F7D8093B00029C0F9
:1005C000809190008F7707C0809190008F7D03C04D
:1005D00080919000877F809390001BC08091A00045
:1005E0008F7707C08091A0008F7D03C08091A0000D
:1005F000877F8093A0000DC0809120018F7707C076
:10060000809120018F7D03C080912001877F80939E
:100610002001E92FF0E0EE0FFF1FE25BFE4FA591F6
:10062000B4918FB7F894EC91311103C020952E232B
:1006300001C02E2B2C938FBF08953FB7F894809163
:10064000290290912A02A0912B02B0912C0226B58A
:10065000A89B05C02F3F19F00196A11DB11D3FBFFA
:10066000BA2FA92F982F8827820F911DA11DB11D88
:10067000BC01CD0142E0660F771F881F991F4A9584
:10068000D1F708958F929F92AF92BF92CF92DF924F
:10069000EF92FF926B017C01D0DF4B015C01C11432
:1006A000D104E104F104E9F0C8DFDC01CB018819D1
:1006B0009909AA09BB09883E9340A105B10578F3C1
:1006C00021E0C21AD108E108F10888EE880E83E023
:1006D000981EA11CB11CC114D104E104F10421F73E
:1006E000DECFFF90EF90DF90CF90BF90AF909F90C4
:1006F0008F900895CF92DF92EF92FF920F931F9306
:10070000CF93DF936C018B017A01EC01CC5DDD4F5F
:10071000888187FF04C0FB011182108224C08CE015
:100720008C9D90018D9D300D11248881A901480F69
:10073000511D87FD5A958091A60390E048175907EF
:1007400094F48881A901480F511D87FD5A95CA016B
:10075000FA01EE0FFF1F8E0F9F1FFC01EA5EFC4F98
:10076000808186FD19C088818F5F88838CE08C9D95
:1007700090018D9D300D11248881A901480F511DD4
:1007800087FD5A958091A60390E048175907B4F465
:1007900088818C303CF112C08881280F311D87FD83
:1007A0003A95F901EE0FFF1F2E0F3F1FF901EA5E88
:1007B000FC4F808160E08F73C4DED5CFF80180816B
:1007C0009181049680349C4918F480E49CE904C02B
:1007D000F801808191810496F701918380838FEFE6
:1007E000888344C0F801408151818881B901680F34
:1007F000711D87FD7A95CB01FB01EE0FFF1F8E0F58
:100800009F1FFC01EA5EFC4F81819281840F951F3E
:10081000F701918380838881A901480F511D87FDCD
:100820005A95CA01FA01EE0FFF1F8E0F9F1FFC01A0
:10083000EA5EFC4F808186FF19C08881280F311D38
:1008400087FD3A95F901EE0FFF1F2E0F3F1FF901AB
:10085000EA5EFC4F808161E08F73DF91CF911F9141
:100860000F91FF90EF90DF90CF906BCEDF91CF9103
:100870001F910F91FF90EF90DF90CF9008950FD5CB
:100880006115710579F0FB0101900020E9F73197BE
:10089000AF01461B570BDC01ED91FC910280F38107
:1008A000E02D199480E090E008958F929F92AF928E
:1008B000BF92CF92DF92EF92FF92CF93DF93CDB7AB
:1008C000DEB7A1970FB6F894DEBF0FBECDBF6C01A7
:1008D00080E2C81682E0D8060CF03EC0D7FC06C005
:1008E00095EBC916D10424F4D60104C0A0E001C0E0
:1008F000A4EBB0E08091AB0328E830E04901881A0E
:10090000910887FD9394880C991C880C991C092CDC
:10091000000CAA08BB088091AC0328E532E0281B34
:10092000310987FD3395220F331F220F331FA90191
:10093000330F660B770B9A01AB01281939094A0965
:100940005B0984D424EB30E040E050E059D4820EBF
:10095000931EA41EB51E01C046013091AA03303378
:1009600090F52091AB0388E890E0821B910927FD68
:100970009395880F991F880F991F881699068CF0F8
:100980008091AC0348E552E0481B510987FD53951F
:10099000440F551F440F551FC401481559050CF449
:1009A000CA010297880F991F4FB7F894232F30E0A0
:1009B000F901EE0FFF1F2E0F3F1FF901EA5EFC4FFA
:1009C000928381834FBF6AE070E080E090E05ADE5E
:1009D0000D2C000CEE08FF08F7FE2AC0E091310252
:1009E000F09132020190F081E02D6DE281E392E01E
:1009F000199522273327A9012C193D094E095F09B2
:100A000019A2FE01B1967F019AE0892E912CA12CAA
:100A1000B12CCA01B901A5019401D0D3605DF701E1
:100A200062937F01211531054105510591F719C0E8
:100A3000A701960119A2CE0181967C018AE0882E39
:100A4000912CA12CB12CCA01B901A5019401B6D3F6
:100A5000605DF70162937F01211531054105510564
:100A600091F7B70181E392E00BDF61E272E081E38D
:100A700092E006DFA1960FB6F894DEBF0FBECDBFA1
:100A8000DF91CF91FF90EF90DF90CF90BF90AF902C
:100A90009F908F9008951F920F920FB60F9211247E
:100AA0000BB60F922F933F934F935F936F937F9368
:100AB0008F939F93AF93BF93EF93FF9381E392E064
:100AC00080DCFF91EF91BF91AF919F918F917F91CA
:100AD0006F915F914F913F912F910F900BBE0F90AF
:100AE0000FBE0F901F9018951F920F920FB60F9286
:100AF00011240BB60F922F938F939F93EF93FF9335
:100B0000E0914102F09142028081E0914702F09130
:100B1000480282FD12C0908180914A028F5F8F73DC
:100B200020914B02821751F0E0914A02F0E0EF5C15
:100B3000FD4F958F80934A0201C08081FF91EF9114
:100B40009F918F912F910F900BBE0F900FBE0F9022
:100B50001F9018951F920F920FB60F9211242F938A
:100B60003F938F939F93AF93BF9380912D0290916A
:100B70002E02A0912F02B09130023091280223E082
:100B8000230F2D3720F40196A11DB11D05C026E8C5
:100B9000230F0296A11DB11D2093280280932D02E0
:100BA00090932E02A0932F02B093300280912902DD
:100BB00090912A02A0912B02B0912C020196A11DC6
:100BC000B11D8093290290932A02A0932B02B09327
:100BD0002C02BF91AF919F918F913F912F910F90D8
:100BE0000FBE0F901F9018951F920F920FB60F9285
:100BF00011240BB60F922F933F934F935F936F93F4
:100C00007F938F939F93AF93BF93EF93FF9348E2AC
:100C100051E064E271E080E090E06CDDFF91EF91E3
:100C2000BF91AF919F918F917F916F915F914F9104
:100C30003F912F910F900BBE0F900FBE0F901F9002
:100C400018951F920F920FB60F9211240BB60F92A8
:100C50002F933F934F935F936F937F938F939F93C4
:100C6000AF93BF93EF93FF9348EA50E064EA70E0DC
:100C700083E090E03FDDFF91EF91BF91AF919F91B5
:100C80008F917F916F915F914F913F912F910F9035
:100C90000BBE0F900FBE0F901F9018951F920F92D2
:100CA0000FB60F9211240BB60F922F933F934F93D1
:100CB0005F936F937F938F939F93AF93BF93EF93C4
:100CC000FF9348E950E064E970E082E090E012DDD3
:100CD000FF91EF91BF91AF919F918F917F916F9114
:100CE0005F914F913F912F910F900BBE0F900FBED0
:100CF0000F901F9018951F920F920FB60F9211240C
:100D00000BB60F922F933F934F935F936F937F9305
:100D10008F939F93AF93BF93EF93FF9348E850E077
:100D200064E870E081E090E0E5DCFF91EF91BF9135
:100D3000AF919F918F917F916F915F914F913F9173
:100D40002F910F900BBE0F900FBE0F901F90189514
:100D5000109234021092330288EE93E0A0E0B0E0EB
:100D60008093350290933602A0933702B0933802F5
:100D700084E092E0909332028093310285EC90E01F
:100D800090933E0280933D0284EC90E09093400269
:100D900080933F0280EC90E0909342028093410266
:100DA00081EC90E0909344028093430282EC90E0C7
:100DB000909346028093450286EC90E0909348021F
:100DC0008093470210924A0210924B0210924C02FA
:100DD00010924D021092D4021092D5021092D602B7
:100DE0001092D7021092D8021092D9021092DA0211
:100DF0001092DB021092DC021092DD021092DE02F1
:100E00001092DF021092E0021092E1021092E202D0
:100E10001092E3028091A6038033A0F491E0980F32
:100E20009093A6038093AA0390E0FC01EE0FFF1FAE
:100E30008E0F9F1FFC01EA5EFC4F88EB9BE09283C4
:100E4000818303C08FEF8093AA038091A603803330
:100E5000A0F491E0980F9093A6038093A70390E0ED
:100E6000FC01EE0FFF1F8E0F9F1FFC01EA5EFC4F7F
:100E700088EB9BE09283818308958FEF8093A70393
:100E80000895789484B5826084BD84B5816084BD02
:100E900085B5826085BD85B5816085BD80916E0018
:100EA000816080936E001092810080918100826049
:100EB0008093810080918100816080938100809186
:100EC00080008160809380008091B1008460809375
:100ED000B1008091B00081608093B000809191005A
:100EE0008260809391008091910081608093910055
:100EF000809190008160809390008091A100826039
:100F00008093A1008091A10081608093A1008091D5
:100F1000A00081608093A000809121018260809375
:100F20002101809121018160809321018091200124
:100F300081608093200180917A00846080937A00A0
:100F400080917A00826080937A0080917A0081603B
:100F500080937A0080917A00806880937A00109262
:100F6000C1001092120310921303109214031092F6
:100F700015031092D0021092D1021092D202109258
:100F8000D30268EB7BE080E090E073D981E392E0EC
:100F90009093110380931003E0914102F09142027B
:100FA00082E08083E0913D02F0913E021082E09168
:100FB0003F02F091400280E1808310924902E0916B
:100FC0004502F091460286E08083E0914302F09171
:100FD0004402808180618083E0914302F091440269
:100FE000808188608083E0914302F0914402808197
:100FF00080688083E0914302F091440280818F7D7C
:1010000080832FB7F89480912D0290912E02A091A9
:101010002F02B09130022FBF8093D0029093D10263
:10102000A093D202B093D30262E172E080911003E8
:101030009091110325DC6AE070E080E090E019D91E
:1010400081E08093E4028091AA03803308F068C0B5
:10105000ECECF1E02491E6E8F1E08491882399F04A
:1010600090E0880F991FFC01E859FE4FA591B491BB
:10107000FC01E25BFE4F859194918FB7F894EC915F
:10108000E22BEC938FBF8091AA03E82FF0E09F0141
:10109000220F331FE20FF31FEA5EFC4F9081907C1A
:1010A000946090831092AB031092AC036CE0E3D099
:1010B0009CE0899FB001112440E050E09A01260F86
:1010C000371FF901EE0FFF1F2E0F3F1FF901EA5ED8
:1010D000FC4F908196FD17C04F5F5F4F4C3051051C
:1010E00069F7813009F03EC01092800082E0809361
:1010F00081001092850010928400B19A80916F0057
:10110000826080936F00E091AA03F0E0CF01880F26
:10111000991FE80FF91FEA5EFC4F8081806480838D
:101120008AE590E0C2DBC0E0D0E0CE01BEDB6AE041
:1011300070E080E090E0A6DA2196C43BD105A9F7E3
:10114000C4EBD0E0CE01B1DB6AE070E080E090E07B
:1011500099DA2197B9F760ED77E080E090E092DAD4
:10116000B8D9E1CF823061F4109290008093910061
:10117000109295001092940088BB80937100C3CFA9
:10118000833069F41092A00082E08093A100109255
:10119000A5001092A40089BB80937200B4CF811186
:1011A000B2CF1092200182E080932101109225019C
:1011B000109224018ABB80937300A5CFA1E21A2E5E
:1011C000AA1BBB1BFD010DC0AA1FBB1FEE1FFF1FEB
:1011D000A217B307E407F50720F0A21BB30BE40B3B
:1011E000F50B661F771F881F991F1A9469F7609582
:1011F0007095809590959B01AC01BD01CF0108953C
:10120000052E97FB16F400940FD057FD05D0D6DFBE
:1012100007FC02D046F408C05095409530952195C2
:101220003F4F4F4F5F4F0895909580957095619512
:101230007F4F8F4F9F4F08950FD0A59F900DB49F64
:10124000900DA49F800D911D11240895B7FFF4CF38
:10125000F3DF821B930B0895A29FB001B39FC001DF
:10126000A39F700D811D1124911DB29F700D811DD2
:101270001124911D0895991B79E004C0991F9617B8
:1012800008F0961B881F7A95C9F780950895EE0F90
:10129000FF1F881F8BBF0790F691E02D199481E006
:0A12A00090E0F89400C0F894FFCF2E
:1012AA000000000002026C019B014802CC01AA0165
:1012BA00BE01564D4450565F317C315F564D445005
:0412CA00560D0A00B3
:00000001FF
