:100000000C94EE000C9416010C9416010C9414053B
:100010000C9414050C9414050C9416010C94CC0744
:100020000C9416010C9416010C9416010C941601F4
:100030000C9416010C9416010C9416010C941601E4
:100040000C9414040C9416010C94B1010C948B01C3
:100050000C9416010C9416010C9416010C941601C4
:100060000C9416010C94160142757A7A65722E7002
:10007000696E203D20002050696E3A2000204475B2
:10008000726174696F6E3A20004E6F74652046721B
:10009000657175656E63793A2000436F6E73747293
:1000A0007563746F723A20424A205369676E616CBF
:1000B000204D616E61676572005369676E616C20E7
:1000C0004D616E6167657220496E697469616C6922
:1000D0007A656400466C6173682044616E63652EC6
:1000E0002E2E0000000000250028002B000000003C
:1000F000002300260029000404040404040404026C
:1001000002020202020303030303030102040810B4
:10011000204080010204081020010204081020522F
:10012000656164793A00496E697469616C697A69DC
:100130006E672048433035205574696C69747900C6
:10014000506572666F726D696E6720536574757065
:1001500000426C7565746F6F7468206E6F742061F7
:100160007661696C61626C650042542052657370FF
:100170006F6E73653A200053656E64696E673A204E
:10018000004641494C55524500535543434553534E
:1001900000506F776572204375742E2E2E002062FA
:1001A000797465732073656E74000A4375727265A5
:1001B0006E742053746174653A00000000002400DE
:1001C00027002A00000000080002010000030407C5
:1001D000000000000000000002004D0C11241FBEB2
:1001E000CFEFD8E0DEBFCDBF11E0A0E0B1E0EAE3A1
:1001F000FCE102C005900D92AA3AB107D9F722E0BE
:10020000AAEAB1E001C01D92A13BB207E1F710E0FC
:10021000CEEED0E004C02197FE010E94E30CCD3E5B
:10022000D107C9F70E9428080C941B0E0C940000FB
:1002300080E192E00E94140221E0892B09F420E081
:10024000822F0895EF92FF920F931F93CF93DF9326
:10025000EC0181E0888F9B8D8C8D981305C0E88917
:10026000F989808185FD24C0F62E0B8D10E00F5F8B
:100270001F4F0F731127E02E8C8DE8120CC00FB6A4
:1002800007FCFACFE889F989808185FFF5CFCE0197
:100290000E944D03F1CF8B8DFE01E80FF11DE35A53
:1002A000FF4FF0820B8FEA89FB898081806207C053
:1002B000EE89FF896083E889F98980818064808381
:1002C00081E090E0DF91CF911F910F91FF90EF902F
:1002D0000895CF93DF93EC01888D8823C9F0EA89D4
:1002E000FB89808185FD05C0A889B9898C9186FD2F
:1002F0000FC00FB607FCF5CF808185FFF2CFA8892C
:10030000B9898C9185FFEDCFCE010E944D03E7CFD7
:10031000DF91CF9108951F920F920FB60F92112483
:100320002F933F934F935F936F937F938F939F93FD
:10033000AF93BF93EF93FF9380E192E00E944D0350
:10034000FF91EF91BF91AF919F918F917F916F91AD
:100350005F914F913F912F910F900FBE0F901F9083
:1003600018951F920F920FB60F9211242F938F930F
:100370009F93EF93FF93E0912002F09121028081FF
:10038000E0912602F091270282FD12C090818091B7
:1003900029028F5F8F7320912A02821751F0E0911A
:1003A0002902F0E0E05FFD4F958F8093290201C0A4
:1003B0008081FF91EF919F918F912F910F900FBEB0
:1003C0000F901F901895FC01538D448D252F30E020
:1003D000842F90E0821B930B541710F0CF96089552
:1003E00001970895FC01918D828D981761F0828D9F
:1003F000DF01A80FB11D5D968C91928D9F5F9F7359
:10040000928F90E008958FEF9FEF0895FC01918DFA
:10041000828D981731F0828DE80FF11D858D90E067
:1004200008958FEF9FEF0895FC01918D228D892F04
:1004300090E0805C9F4F821B91098F7399270895EC
:1004400080E090E0892B29F00E94180181110C9422
:1004500000000895833081F028F4813099F08230D3
:10046000A1F008958730A9F08830B9F08430D1F434
:10047000809180008F7D03C0809180008F77809372
:100480008000089584B58F7702C084B58F7D84BDC8
:1004900008958091B0008F7703C08091B0008F7D68
:1004A0008093B0000895CF93DF93282F30E0F901B7
:1004B000EC53FE4F8491F901E55FFE4FD491F901B1
:1004C000E950FF4FC491CC2391F081110E942A0280
:1004D000EC2FF0E0EE0FFF1FE351FF4FA591B49119
:1004E000EC91ED2381E090E021F480E002C080E017
:1004F00090E0DF91CF9108953FB7F8948091050285
:1005000090910602A0910702B091080226B5A89B1F
:1005100005C02F3F19F00196A11DB11D3FBFBA2F95
:10052000A92F982F8827820F911DA11DB11DBC01F5
:10053000CD0142E0660F771F881F991F4A95D1F7BA
:1005400008952091FE013091FF012817390771F4B9
:100550009091FD018091FC01981741F0E091FD011F
:10056000F0E0E454FE4F808190E008958FEF9FEF1C
:10057000089508951F93CF93DF93DC015C962D912E
:100580003C915D972115310539F481E090E0139697
:100590009C938E9312973DC05196ED91FC9152978A
:1005A00050969C915097892F80951FB75E964C91DD
:1005B0005E9741FB772770F941FD6095F894408183
:1005C000772311F0492B01C048234083E90121978B
:1005D000F1F748E0508160FF02C0592B01C0582359
:1005E0005083E9012197F1F76695415099F77723F8
:1005F00021F090818923808303C08081982B908390
:100600001FBF5C968D919C915D970197F1F721E05A
:1006100030E0C901DF91CF911F9108952091FE0133
:100620003091FF012817390771F48091FC01209166
:10063000FD0190E0805C9F4F821B910960E470E0B7
:100640000E947A0C089580E090E008952091FE01C8
:100650003091FF0128173907B9F49091FD0180917D
:10066000FC01981789F0E091FD01F0E0E454FE4FA1
:1006700080812091FD0130E02F5F3F4F2F733327A2
:100680002093FD0190E008958FEF9FEF0895089566
:1006900080E090E008950E94160EFC01848DDF0139
:1006A000A80FB11DA35ABF4F2C91848D90E00196E5
:1006B0008F739927848FA689B7892C93A089B189D4
:1006C0008C9180648C93938D848D981306C00288DE
:1006D000F389E02D80818F7D808308951F93CF93D0
:1006E000DF93282F30E0F901EC53FE4F8491F9019C
:1006F000E55FFE4FD491F901E950FF4FC491CC233F
:10070000C9F0162F81110E942A02EC2FF0E0EE0FA3
:10071000FF1FED51FF4FA591B4918FB7F8941111C0
:1007200005C09C91ED2FE095E92302C0EC91ED2BE3
:10073000EC938FBFDF91CF911F910895CF93DF93FB
:1007400090E0FC01E55FFE4F2491FC01E950FF4F72
:100750008491882361F190E0880F991FFC01E65491
:10076000FE4FC591D491FC01ED51FF4FA591B4917D
:10077000611109C09FB7F8948881209582238883EE
:10078000EC912E230BC0623061F49FB7F89438814E
:10079000822F809583238883EC912E2B2C939FBFEF
:1007A00006C08FB7F894E8812E2B28838FBFDF9186
:1007B000CF9108958F929F92AF92BF92CF92DF9286
:1007C000EF92FF926B017C010E947C024B015C0165
:1007D000C114D104E104F104F1F00E947C02DC01B7
:1007E000CB0188199909AA09BB09883E9340A10544
:1007F000B10570F321E0C21AD108E108F10888EED2
:10080000880E83E0981EA11CB11CC114D104E10420
:10081000F10419F7DDCFFF90EF90DF90CF90BF90FC
:10082000AF909F908F9008951F920F920FB60F92E6
:1008300011242F933F938F939F93AF93BF938091F6
:10084000010290910202A0910302B0910402309142
:10085000000223E0230F2D3720F40196A11DB11DC6
:1008600005C026E8230F0296A11DB11D20930002AA
:100870008093010290930202A0930302B0930402BA
:100880008091050290910602A0910702B0910802A2
:100890000196A11DB11D8093050290930602A093BD
:1008A0000702B0930802BF91AF919F918F913F9142
:1008B0002F910F900FBE0F901F901895CF9360E06F
:1008C00086E00E949E0386E00E945302C1E0892BCD
:1008D00019F4C0E060E001C061E08AE00E946E03AC
:1008E00061E086E00E949E038C2FCF910895CF9304
:1008F00083E00E945302C1E0892B19F4C0E060E05C
:1009000001C061E08CE00E946E038C2FCF910895AE
:100910000F931F93CF93DF938C01EB01FC0186852E
:1009200097856817790741F18AEA91E00E94C1062C
:10093000CE010E945C07C0FF04C08FE691E00E94D8
:10094000AE06C1FF04C08CE791E00E94AE06C2FF74
:1009500004C089E891E00E94AE06C3FF04C083E9A9
:1009600091E00E94AE06CE0186719927892B21F075
:100970008CE991E00E94AE06F801D787C687DF9127
:10098000CF911F910F9108950F931F93CF93DF93F2
:100990008C0160E08BE00E946E0360E08AE00E94C0
:1009A0006E0360E08CE00E946E0360E084E00E94D1
:1009B0006E0389E00E945302892B39F061E084E0E4
:1009C0000E946E03C1E0D0E002C0C0E0D0E0C801E8
:1009D0000E945E0481112296C8010E947704811151
:1009E0002496F8018285882319F0CE01089602C06A
:1009F000CE014096DF91CF911F910F91089561151F
:100A0000710579F0FB0101900020E9F73197AF0102
:100A1000461B570BDC01ED91FC910280F381E02D28
:100A2000099480E090E008951F920F920FB60F9204
:100A300011242F933F934F935F936F937F938F93E3
:100A40009F93AF93BF93EF93FF93E091FE01F091DB
:100A5000FF01309709F451C0968DA685B78585852D
:100A600091FF04C09C91892329F447C09C9189235C
:100A700009F043C0A389B4899C9185898095892315
:100A80008C93868997890197F1F7608D718DA68582
:100A9000B785558538E020E0CB010197F1F7822F2B
:100AA00090E095958795282F4C91452309F0206873
:100AB000315091F7868D81FD20958091FC0190E069
:100AC00001968F7399273091FD01381749F0A09155
:100AD000FC01B0E0A454BE4F2C938093FC0103C0F2
:100AE000868D8160868F828D938D0197F1F7A38922
:100AF000B4899C918589892B8C93FF91EF91BF914B
:100B0000AF919F918F917F916F915F914F913F91A5
:100B10002F910F900FBE0F901F901895E091FE013E
:100B2000F091FF01E817F90769F4A389B4899C9152
:100B30008589809589238C931092FF011092FE0184
:100B400081E0089580E00895CF93DF93EC018A8DD2
:100B50009B8D892BF1F08091FE019091FF018C1704
:100B60009D07B9F0009711F00E948E058E8D8E7F43
:100B70008E8F1092FC011092FD01D093FF01C09363
:100B8000FE01EB89FC8990818D89892B808381E02E
:100B900001C080E0DF91CF910895CF93DF93EC0106
:100BA0009A01AB011B8E1A8E198E188E1F8A1E8A0F
:100BB00060E079E08DE390E00E94B00CF901243010
:100BC000310518F0C901039702C081E090E09D8FC4
:100BD0008C8F6C85663108F069C0C9019695879540
:100BE0008431910510F0439702C081E090E09F8B23
:100BF0008E8B369718F0C901059702C081E090E00E
:100C0000998F888FC901880F991F280F391F369532
:100C10002795369527952D30310518F02C50310940
:100C200002C021E030E03B8F2A8F9091680068304D
:100C300050F021E06E3008F420E081E001C0880F20
:100C40002A95EAF701C084E0892B809368008C859F
:100C5000883038F08E3040F0863148F020E030E0C7
:100C600008C02DE630E005C02BE630E002C02CE6DF
:100C700030E03C8B2B8B883030F491E001C0990F31
:100C80008A95EAF70EC0282F30E08E3018F42850ED
:100C9000310902C02E50310991E001C0990F2A9507
:100CA000EAF79D8B8C8D9D8D0197F1F7CE01DF9139
:100CB000CF910C94A405CF92DF92EF92FF920F9305
:100CC0001F93CF93DF936C017A018B01C0E0D0E0DA
:100CD000CE15DF0589F0D8016D918D01D601ED911A
:100CE000FC910190F081E02DC6010995892B11F44A
:100CF0007E0102C02196ECCFC701DF91CF911F91F9
:100D00000F91FF90EF90DF90CF900895E0E1F2E037
:100D1000A089B18982E08C93A485B5851C92A685B3
:100D2000B78580E18C93108EA489B58986E08C9379
:100D3000A289B3898C9180618C93A289B3898C91AB
:100D400088608C93A289B3898C9180688C93028887
:100D5000F389E02D80818F7D80830895CF93DF9389
:100D6000BC0180E192E00E94FF04EC016BE271E0C3
:100D700080E192E00E94FF048C0F9D1FDF91CF91D4
:100D800008950F931F93CF93DF938C01C0E0D0E0C1
:100D9000F801EC0FFD1F6491662371F0E0911002E1
:100DA000F09111020190F081E02D80E192E009952F
:100DB000892B11F02196ECCFCE01DF91CF911F91BD
:100DC0000F910895CF93DF930E94C106EC016BE26F
:100DD00071E080E192E00E94FF048C0F9D1FDF9183
:100DE000CF9108958F929F92AF92BF920F931F93CE
:100DF000CF93DF93CDB7DEB7A1970FB6F894DEBFE0
:100E00000FBECDBF19A2423008F44AE08E010F5D3B
:100E10001F4F842E912CA12CB12CA50194010E946E
:100E20008E0CE62FB901CA0101501109EA3014F401
:100E3000E05D01C0E95CD801EC93232B242B252B2A
:100E400061F7B80180E192E00E94FF04A1960FB61D
:100E5000F894DEBF0FBECDBFDF91CF911F910F91F0
:100E6000BF90AF909F908F900895CF92DF92EF92B6
:100E7000FF92CF93DF936B017C01E0911002F09120
:100E800011020190F081E02D6DE280E192E0099580
:100E9000EC0166277727CB016C197D098E099F0924
:100EA0004AE00E94F2068C0F9D1FDF91CF91FF90C8
:100EB000EF90DF90CF900895CF93DF93BC01990F0F
:100EC000880B990B97FF03C00E94350703C04AE0C7
:100ED0000E94F206EC016BE271E080E192E00E9478
:100EE000FF048C0F9D1FDF91CF9108951F93CF9327
:100EF000DF93182FC6E0D0E02197A9F061E0812FA1
:100F00000E946E0362E370E080E090E00E94DA03EA
:100F100060E0812F0E946E0362E370E080E090E069
:100F20000E94DA03E9CFDF91CF911F910895BC01B0
:100F3000990F880B990B97FD0C9435074AE00C9498
:100F4000F20690910001981324C0E8EDF1E0E491DD
:100F50009FEF90930001E130B9F098F0E230C9F4CE
:100F6000909170009D7F9093700091E09093B000FD
:100F70009091B100987F94609093B1001092B3006B
:100F800008C010926E0005C090916F009D7F9093F5
:100F90006F0060E00C946E031F920F920FB60F92D9
:100FA00011242F933F934F935F936F937F938F936E
:100FB0009F93AF93BF93EF93FF9380910C02909117
:100FC0000D02A0910E02B0910F02892B8A2B8B2B60
:100FD00051F180910B02E0910902F0910A02908197
:100FE0008927808380910C0290910D02A0910E02BE
:100FF000B0910F02181619061A061B06C4F4809148
:101000000C0290910D02A0910E02B0910F02019777
:10101000A109B10980930C0290930D02A0930E02D6
:10102000B0930F0204C0809100010E94A107FF91BC
:10103000EF91BF91AF919F918F917F916F915F9150
:101040004F913F912F910F900FBE0F901F901895C9
:10105000CF93DF93CDB7DEB76F970FB6F894DEBFAF
:101060000FBECDBF789484B5826084BD84B58160A5
:1010700084BD85B5826085BD85B5816085BD809163
:101080006E00816080936E001092810080918100DB
:1010900082608093810080918100816080938100D3
:1010A000809180008160809380008091B100846095
:1010B0008093B1008091B00081608093B0008091F6
:1010C0007A00846080937A0080917A0082608093B5
:1010D0007A0080917A00816080937A0080917A0012
:1010E000806880937A001092C1000E94860680E496
:1010F00091E00E94E20664E670E080E090E00E94E9
:10110000DA0388E190E00E94E90C8C018FEF9FEFF9
:10111000D80119969C938E9318971A961C921A9739
:101120001B961C921B971C961C921C971D961C923A
:101130001D971F961C921E921E97F801709685E0CF
:10114000DF011D928A95E9F781E4F801808B84E53F
:10115000818B8DE0828B8AE0838B8FE4858B8BE49F
:10116000868B178A1093BB010093BA010E948606F2
:1011700086E291E00E94E20661E08CE00E949E031C
:1011800061E08BE00E949E0361E08AE00E949E0382
:1011900061E087E00E949E0360E088E00E949E0379
:1011A00061E086E00E949E0360E089E00E949E0369
:1011B00061E084E00E949E0360E083E00E949E0361
:1011C00084E090E00E94E90C7C01DC011C92F801B3
:1011D0009383828385E090E012969C938E9311977F
:1011E00061E00E949E03D70113968C91882349F0F9
:1011F00088E690E00E94C106F701818192810E94F9
:101200005C07D8011296ED90FC901397F70183814B
:10121000882339F189E890E00E94C1064AE06FEF27
:1012200070E080E090E00E94F2068DE790E00E947E
:10123000C1064AE064EF71E080E090E00E94F206AF
:1012400086E790E00E94C106D70111968D919C918E
:1012500012970E9497076BE271E080E192E00E9492
:10126000FF04F7012181328180910001821721F072
:101270008F3F09F0C8C004C0E8EDF1E094917FC051
:1012800020930001E8EDF1E0E491EF3F09F4BBC0E9
:10129000E13031F1E23009F44AC0E1116FC014BC11
:1012A00015BC84B5826084BD85B5816085BDC901EA
:1012B0009927FC01E950FF4FE491F0E0EE0FFF1F8A
:1012C000ED51FF4F459154915093AF014093AE01C2
:1012D000FC01E55FFE4FE491E093AD0190E051C069
:1012E000109280001092810080918100886080932C
:1012F000810080918100816080938100C9019927DC
:10130000FC01E950FF4FE491F0E0EE0FFF1FED51BB
:10131000FF4F459154915093AC014093AB01FC01B8
:10132000E55FFE4FE491E093AA0191E02AC010929C
:10133000B0001092B1008091B00082608093B00044
:101340008091B10081608093B100C9019927FC01AF
:10135000E950FF4FE491F0E0EE0FFF1FED51FF4F1A
:101360004591549150930A0240930902FC01E55FB4
:10137000FE4FE491E0930B0292E003C09E2F97FD95
:1013800042C061E0822F9F8F0E949E039F8D992310
:1013900009F46BC2923009F460C29130F1F480918B
:1013A0008100887F8160809381008BE89AE7909329
:1013B0008900809388008FEF90E0A0E0B0E08093F8
:1013C000B0019093B101A093B201B093B3018091A9
:1013D0006F00826080936F0016C09230A1F48BE89A
:1013E0008093B3008FEF90E0A0E0B0E080930C0218
:1013F00090930D02A0930E02B0930F0280917000A3
:1014000082608093700064EF71E080E090E00E9461
:10141000DA03D70111968C910E94A10761E070E078
:1014200080E090E00E94DA03F70181810E94A10729
:1014300081E090E00E94E90C7C018AE990E00E9442
:10144000E206D8011796FC92EE92169789EB90E08F
:101450000E94E20684ED90E00E94E2068CE090E0BB
:101460000E9476078BE090E00E9476078AE090E089
:101470000E94760784E090E00E9476078FE190E07A
:101480000E94E90C7C01FC011382128288EE93E039
:10149000A0E0B0E084839583A683B7838DE191E0DB
:1014A00091838083178A168A118E108E138E128E66
:1014B000158E148E668D6E7F6D7F668F669561705A
:1014C00081E0682787E00E946E0361E087E00E9468
:1014D0009E03E2E1F1E0E491D7015096EC93EEEF48
:1014E000F0E0E491F0E0EE0FFF1FED51FF4F85912A
:1014F0009491F701928B818B60E088E00E949E03BB
:10150000D7015E968C9181FD04C061E088E00E9465
:101510006E0388E0F7018487E3E1F1E0E491D7010D
:101520001D96EC93EFEFF0E0E491F0E0EE0FFF1F7B
:10153000E351FF4F85919491F70197878687D801F2
:10154000ED92FC92C8010E945E04811109C040E83E
:1015500055E260E070E0F801808191810E94CD0544
:10156000C8010E94C404BC01C8010E9488048FE124
:1015700091E00E94E2068091BA019091BB010E9425
:10158000C4049093B9018093B8018EE291E00E9467
:10159000AE06DD24D394E090BA01F090BB01C70100
:1015A0000E94C4048C018091B8019091B901081780
:1015B000190741F0B801C7010E9488041093B901CE
:1015C0000093B8010091BA011091BB01C8010E94BB
:1015D0007704882309F4BCC0D8011B96FC901B97A4
:1015E000F110B6C01B96DC9281E991E00E94C10621
:1015F000F801808191810E948E0562E370E080E0B5
:1016000090E00E94DA0340E056E960E070E0D80123
:101610008D919C910E94CD056EE371E080E192E096
:101620000E94FF045801B0E1AB0EB11CB501F801F6
:10163000808191810E94FF0487E791E00E94C106AA
:10164000C5010E94AE0662E370E080E090E00E9477
:10165000DA03D8018D919C91DC01ED91FC9100841D
:10166000F185E02D0995892B09F444C0E12CF8019E
:1016700080819181DC01ED91FC910084F185E02D68
:101680000995892B09F1CC24C394CE0CF8018081F3
:101690009181DC01ED91FC910284F385E02D0995A7
:1016A000E1E0F0E0EC0FFD1FEE0DF11DE7FCFA9517
:1016B0008083E1E0F0E0EC0FFD1FEC0DF11DC7FCB5
:1016C000FA951082EC2CD3CF89E691E00E94C106F6
:1016D000CE0101960E94AE0662E571E080E192E0E3
:1016E0000E94FF04CE0101960E94AE0689818F34CC
:1016F00071F407C081E591E00E94E206F8011286CC
:1017000009C0FF24F3948A818B3409F0F12CD801AD
:101710001A96FC92F801F286FF2019F089E891E010
:1017200015C0808191810E948E0562E370E080E0A7
:1017300090E00E94DA0340E855E260E070E0F801D2
:10174000808191810E94CD0581E891E00E94E206AE
:1017500080E192E00E941402892BD1F1E12CF12C5E
:1017600080E192E00E941402892B11F180E192E065
:101770000E94F201C82E682F80E192E00E942201AF
:10178000D8018D919C91DC01ED91FC910190F0814B
:10179000E02D6C2D0995892B39F46DE571E080E120
:1017A00092E00E94FF04DCCFBFEFEB1AFB0AD8CF18
:1017B000E114F10469F0C7010E9497078EE991E0F6
:1017C0000E94E20662E370E080E090E00E94DA03AB
:1017D000F801808191810E94A405D8018D919C918E
:1017E000DC01ED91FC910084F185E02D0995892BB8
:1017F00059F1E12CF12CF80180819181DC01ED910E
:10180000FC910084F185E02D0995892B99F0F80170
:1018100080819181DC01ED91FC910284F385E02DC2
:101820000995682F80E192E00E942201BFEFEB1A38
:10183000FB0AE1CFE114F10439F0C7010E949707D8
:101840008FE591E00E94AE0664EF71E080E090E0E9
:101850000E94DA030E9420029ECE8091B100887F10
:1018600085608093B10084EFBBCD85B5887F8460AF
:1018700085BD89E787BD8FEF90E0A0E0B0E0809361
:10188000B4019093B501A093B601B093B7018091D4
:101890006E00826080936E00B6CDE0E1F2E01382CC
:1018A000128288EE93E0A0E0B0E084839583A68363
:1018B000B7838BE091E09183808385EC90E09587FE
:1018C000848784EC90E09787868780EC90E0918B0A
:1018D000808B81EC90E0938B828B82EC90E0958BF7
:1018E000848B86EC90E0978B868B118E128E138EF4
:1018F000148E089597FB072E16F4009407D077FDF9
:1019000009D00E94CF0C07FC05D03EF4909581953C
:101910009F4F0895709561957F4F0895A1E21A2E0B
:10192000AA1BBB1BFD010DC0AA1FBB1FEE1FFF1F83
:10193000A217B307E407F50720F0A21BB30BE40BD3
:10194000F50B661F771F881F991F1A9469F760951A
:101950007095809590959B01AC01BD01CF010895D4
:10196000052E97FB1EF400940E94C70C57FD07D06C
:101970000E948E0C07FC03D04EF40C94C70C5095BB
:101980004095309521953F4F4F4F5F4F089590956B
:101990008095709561957F4F8F4F9F4F0895AA1B3B
:1019A000BB1B51E107C0AA1FBB1FA617B70710F04A
:1019B000A61BB70B881F991F5A95A9F7809590957C
:1019C000BC01CD010895EE0FFF1F0590F491E02DAD
:1019D0000994CF93DF938230910510F482E090E078
:1019E000E091AF02F091B00220E030E0C0E0D0E042
:1019F000309711F14081518148175907C0F04817BD
:101A0000590761F482819381209719F09B838A831F
:101A10002BC09093B0028093AF0226C021153105F0
:101A200019F04217530718F49A01BE01DF01EF01C4
:101A30000280F381E02DDCCF2115310509F1281B4F
:101A4000390B2430310590F412968D919C911397A7
:101A50006115710521F0FB019383828304C090938B
:101A6000B0028093AF02FD01329644C0FD01E20F47
:101A7000F31F81939193225031092D933C933AC0E7
:101A80002091AD023091AE02232B41F4209103014D
:101A9000309104013093AE022093AD0220910101F8
:101AA000309102012115310541F42DB73EB7409127
:101AB000050150910601241B350BE091AD02F09118
:101AC000AE02E217F307A0F42E1B3F0B28173907CD
:101AD00078F0AC014E5F5F4F2417350748F04E0F8A
:101AE0005F1F5093AE024093AD028193919302C069
:101AF000E0E0F0E0CF01DF91CF9108950F931F93C5
:101B0000CF93DF93009709F48CC0FC0132971382C6
:101B100012820091AF021091B0020115110581F4FB
:101B200020813181820F931F2091AD023091AE024E
:101B30002817390779F5F093AE02E093AD0271C032
:101B4000D80140E050E0AE17BF0750F412962D9137
:101B50003C911397AD012115310509F1D901F3CF5E
:101B60009D01DA013383228360817181860F971F83
:101B70008217930769F4EC0128813981260F371FFA
:101B80002E5F3F4F318320838A819B8193838283A1
:101B9000452B29F4F093B002E093AF0242C01396B4
:101BA000FC93EE931297ED01499159919E01240FF8
:101BB000351FE217F30771F480819181840F951F1F
:101BC000029611969C938E938281938113969C9397
:101BD0008E931297E0E0F0E0D80112968D919C91DF
:101BE0001397009719F0F8018C01F6CF8D919C9115
:101BF00098012E5F3F4F820F931F2091AD023091CD
:101C0000AE022817390769F4309729F41092B00210
:101C10001092AF0202C0138212821093AE020093A0
:101C2000AD02DF91CF911F910F91089581E090E077
:0A1C3000F8940C941B0EF894FFCFFB
:101C3A00FF0000B10280000000000022015B06E301
:101C4A000169011402F201060200000000BA025BF7
:101C5A00064803B9020E032603A1020D0A005365C2
:101C6A0074757020636F6D706C6574656400456E81
:101C7A00746572696E67204154204D6F64652E2E1B
:101C8A002E0052656365697665643A20002A002051
:101C9A0062797465732072656365697665640009A3
:101CAA0053746174757320486967680009456E61E9
:101CBA00626C6520486967680009506F7765722011
:101CCA004F6E00094154204D6F646500094E6F72D2
:0A1CDA006D616C204D6F6465000021
:00000001FF
